:020000040800F2
:10000000FFFF012049110008F9110008FB11000849
:10001000FD110008FF110008011200080000000097
:1000200000000000000000000000000003120008B3
:10003000051200080000000007120008091200085D
:1000400095110008951100089511000895110008F8
:1000500095110008951100089511000895110008E8
:1000600095110008951100089511000895110008D8
:1000700095110008951100089511000895110008C8
:100080005912000865120008951100089511000822
:1000900095110008951100089511000895110008A8
:1000A0009511000895110008951100089511000898
:1000B0009511000895110008951100089511000888
:1000C0009511000895110008951100089511000878
:1000D000951100089511000871120008951100088B
:1000E0009511000895110008951100089511000858
:1000F0009511000895110008951100089511000848
:100100009511000895110008951100089511000837
:100110009511000895110008951100089511000827
:100120009511000895110008951100089511000817
:100130009511000895110008951100089511000807
:1001400095110008951100089511000895110008F7
:1001500095110008951100089511000895110008E7
:1001600095110008951100089511000895110008D7
:100170009511000895110008951100080000000075
:0801800095110008951100081B
:10018800844641EA000313F003036DD1403A41D39A
:1001980051F8043B40F8043B51F8043B40F8043B59
:1001A80051F8043B40F8043B51F8043B40F8043B49
:1001B80051F8043B40F8043B51F8043B40F8043B39
:1001C80051F8043B40F8043B51F8043B40F8043B29
:1001D80051F8043B40F8043B51F8043B40F8043B19
:1001E80051F8043B40F8043B51F8043B40F8043B09
:1001F80051F8043B40F8043B51F8043B40F8043BF9
:1002080051F8043B40F8043B51F8043B40F8043BE8
:10021800403ABDD2303211D351F8043B40F8043B88
:1002280051F8043B40F8043B51F8043B40F8043BC8
:1002380051F8043B40F8043B103AEDD20C3205D398
:1002480051F8043B40F8043B043AF9D2043208D090
:10025800D2071CBF11F8013B00F8013B01D30B8802
:1002680003806046704700BF082A13D38B078DD0E0
:1002780010F003038AD0C3F10403D21ADB071CBFB2
:1002880011F8013B00F8013B80D331F8023B20F81C
:10029800023B7BE7043AD9D3013A11F8013B00F855
:1002A800013BF9D20B7803704B7843708B788370DD
:1002B8006046704781F0004102E000BF83F00043D0
:1002C80030B54FEA41044FEA430594EA050F08BFE9
:1002D80090EA020F1FBF54EA000C55EA020C7FEAAD
:1002E800645C7FEA655C00F0E2804FEA5454D4EB2A
:1002F8005555B8BF6D420CDD2C4480EA020281EAF4
:10030800030382EA000083EA010180EA020281EA2B
:100318000303362D88BF30BD11F0004F4FEA01317D
:100328004FF4801C4CEA113102D0404261EB41018C
:1003380013F0004F4FEA03334CEA133302D0524212
:1003480063EB430394EA050F00F0A780A4F10104CE
:10035800D5F1200E0DDB02FA0EFC22FA05F2801808
:1003680041F1000103FA0EF2801843FA05F35941EE
:100378000EE0A5F120050EF1200E012A03FA0EFC6D
:1003880028BF4CF0020C43FA05F3C01851EBE37197
:1003980001F0004507D54FF0000EDCF1000C7EEBB4
:1003A80000006EEB0101B1F5801F1BD3B1F5001FF2
:1003B8000CD349085FEA30004FEA3C0C04F1010411
:1003C8004FEA445212F5800F80F09A80BCF1004F3A
:1003D80008BF5FEA500C50F1000041EB045141EABC
:1003E800050130BD5FEA4C0C404141EB010111F4BD
:1003F800801FA4F10104E9D191F0000F04BF014668
:100408000020B1FA81F308BF2033A3F10B03B3F145
:1004180020020CDA0C3208DD02F1140CC2F10C02D5
:1004280001FA0CF021FA02F10CE002F11402D8BF33
:10043800C2F1200C01FA02F120FA0CFCDCBF41EAFF
:100448000C019040E41AA2BF01EB0451294330BDCE
:100458006FEA04041F3C1CDA0C340EDC04F11404AB
:10046800C4F1200220FA04F001FA02F340EA030082
:1004780021FA04F345EA030130BDC4F10C04C4F1C8
:10048800200220FA02F001FA04F340EA03002946A8
:1004980030BD21FA04F0294630BD94F0000F83F4F2
:1004A800801306BF81F480110134013D4EE77FEAD5
:1004B800645C18BF7FEA655C29D094EA050F08BF21
:1004C80090EA020F05D054EA000C04BF1946104602
:1004D80030BD91EA030F1EBF0021002030BD5FEA46
:1004E800545C05D14000494128BF41F0004130BD6E
:1004F80014F580043CBF01F5801130BD01F00045C2
:1005080045F0FE4141F470014FF0000030BD7FEA34
:10051800645C1ABF194610467FEA655C1CBF0B462F
:10052800024650EA013406BF52EA033591EA030F46
:1005380041F4002130BD00BF90F0000F04BF00213E
:10054800704730B54FF4806404F132044FF0000571
:100558004FF0000150E700BF90F0000F04BF0021EA
:10056800704730B54FF4806404F1320410F0004550
:1005780048BF40424FF000013EE700BF42004FEA4B
:10058800E2014FEA31014FEA02701FBF12F07F43C8
:1005980093F07F4F81F06051704792F0000F14BFC5
:1005A80093F07F4F704730B54FF4607401F0004509
:1005B80021F0004120E700BF50EA010208BF704760
:1005C80030B54FF000050AE050EA010208BF704755
:1005D80030B511F0004502D5404261EB41014FF4BE
:1005E800806404F132045FEA915C3FF4DCAE4FF0C2
:1005F80003025FEADC0C18BF03325FEADC0C18BFA9
:10060800033202EBDC02C2F1200300FA03FC20FAF9
:1006180002F001FA03FE40EA0E0021FA02F1144446
:10062800C1E600BF70B54FF0FF0C4CF4E06C1CEA5B
:1006380011541DBF1CEA135594EA0C0F95EA0C0FD0
:1006480000F0DEF82C4481EA030621EA4C5123EA43
:100658004C5350EA013518BF52EA033541F4801172
:1006680043F4801338D0A0FB02CE4FF00005E1FB25
:1006780002E506F00042E0FB03E54FF00006E1FB6F
:1006880003569CF0000F18BF4EF0010EA4F1FF04B2
:10069800B6F5007F64F5407404D25FEA4E0E6D41F2
:1006A80046EB060642EAC62141EA55514FEAC52003
:1006B80040EA5E504FEACE2EB4F1FD0C88BFBCF57F
:1006C800E06F1ED8BEF1004F08BF5FEA500E50F130
:1006D800000041EB045170BD06F0004646EA0101F6
:1006E80040EA020081EA0301B4EB5C04C2BFD4EB28
:1006F8000C0541EA045170BD41F480114FF0000E21
:10070800013C00F3AB8014F1360FDEBF002001F08E
:10071800004170BDC4F10004203C35DA0C341BDC08
:1007280004F11404C4F1200500FA05F320FA04F0DA
:1007380001FA05F240EA020001F0004221F000410E
:1007480010EBD37021FA04F642EB06015EEA430E81
:1007580008BF20EAD37070BDC4F10C04C4F12005B1
:1007680000FA04F320FA05F001FA04F240EA020064
:1007780001F0004110EBD37041F100015EEA430E35
:1007880008BF20EAD37070BDC4F1200500FA05F255
:100798004EEA020E20FA04F301FA05F243EA0203D4
:1007A80021FA04F001F0004121FA04F220EA0200E3
:1007B80000EBD3705EEA430E08BF20EAD37070BD29
:1007C80094F0000F0FD101F00046400041EB010109
:1007D80011F4801F08BF013CF7D041EA060195F0EB
:1007E800000F18BF704703F00046520043EB0303A5
:1007F80013F4801F08BF013DF7D043EA0603704792
:1008080094EA0C0F0CEA135518BF95EA0C0F0CD09C
:1008180050EA410618BF52EA4306D1D181EA0301E2
:1008280001F000414FF0000070BD50EA410606BFDC
:100838001046194652EA430619D094EA0C0F02D121
:1008480050EA013613D195EA0C0F05D152EA033666
:100858001CBF104619460AD181EA030101F0004184
:1008680041F0FE4141F470014FF0000070BD41F0CD
:10087800FE4141F4780170BD70B54FF0FF0C4CF4A7
:10088800E06C1CEA11541DBF1CEA135594EA0C0FC6
:1008980095EA0C0F00F0A7F8A4EB050481EA030E13
:1008A80052EA03354FEA013100F088804FEA0333FA
:1008B8004FF0805545EA131343EA12634FEA0222C8
:1008C80045EA111545EA10654FEA00260EF0004189
:1008D8009D4208BF964244F1FD0404F5407402D2DB
:1008E8005B084FEA3202B61A65EB03055B084FEA6C
:1008F80032024FF480104FF4002CB6EB020E75EB69
:10090800030E22BFB61A754640EA0C005B084FEA90
:100918003202B6EB020E75EB030E22BFB61A75460D
:1009280040EA5C005B084FEA3202B6EB020E75EB58
:10093800030E22BFB61A754640EA9C005B084FEAD0
:100948003202B6EB020E75EB030E22BFB61A7546DD
:1009580040EADC0055EA060E18D04FEA051545EACC
:1009680016754FEA06164FEAC30343EA52734FEA75
:10097800C2025FEA1C1CC0D111F4801F0BD141EAEE
:1009880000014FF000004FF0004CB6E711F4801F53
:1009980004BF01430020B4F1FD0C88BFBCF5E06F33
:1009A8003FF6AFAEB5EB030C04BFB6EB020C5FEA43
:1009B800500C50F1000041EB045170BD0EF0004E98
:1009C8004EEA113114EB5C04C2BFD4EB0C0541EACA
:1009D800045170BD41F480114FF0000E013C90E6C7
:1009E80045EA060E8DE60CEA135594EA0C0F08BF8B
:1009F80095EA0C0F3FF43BAF94EA0C0F0AD150EA8A
:100A080001347FF434AF95EA0C0F7FF425AF10461C
:100A180019462CE795EA0C0F06D152EA03353FF444
:100A2800FDAE1046194622E750EA410618BF52EAC1
:100A380043067FF4C5AE50EA41047FF40DAF52EA95
:100A480043057FF4EBAE12E74FF0FF3C06E000BF32
:100A58004FF0010C02E000BF4FF0010C4DF804CD3F
:100A68004FEA410C7FEA6C5C4FEA430C18BF7FEAFF
:100A78006C5C1BD001B050EA410C0CBF52EA430C2D
:100A880091EA030F02BF90EA020F0020704710F1AD
:100A9800000F91EA030F58BF994208BF90422CBF3C
:100AA800D8176FEAE37040F0010070474FEA410C35
:100AB8007FEA6C5C02D150EA013C07D14FEA430C53
:100AC8007FEA6C5CD6D152EA033CD3D05DF8040BC4
:100AD800704700BF8446104662468C4619466346F6
:100AE80000E000BF01B5FFF7B7FF002848BF10F1CD
:100AF800000F01BD4DF808EDFFF7F4FF0CBF012012
:100B080000205DF808FB00BF4DF808EDFFF7EAFF8D
:100B180034BF012000205DF808FB00BF4DF808ED48
:100B2800FFF7E0FF94BF012000205DF808FB00BF3D
:100B38004DF808EDFFF7CEFF94BF012000205DF8C7
:100B480008FB00BF4DF808EDFFF7C4FF34BF0120D4
:100B580000205DF808FB00BF4FEA410212F50012C1
:100B680015D211D56FF47873B3EB625212D94FEAEC
:100B7800C12343F0004343EA505311F0004F23FAD6
:100B880002F018BF404270474FF00000704750EA2B
:100B9800013005D111F0004008BF6FF000407047E8
:100BA8004FF00000704700BF4BB942B9002908BF99
:100BB800002802D04FF0FF31084600F03BB882B061
:100BC800EC462DE9005000F01DF8DDF804E002B015
:100BD8000CBC70472DE9F041069C154606460F46A9
:100BE800984600F029F805FB01F300FB0838A5FB3F
:100BF8000023B21A434467EB0303C4E90023BDE8AA
:100C0800F08100BF2DE9F041069C904606460F464C
:100C18001D4600F05FF900FB05F5A0FB082308FB63
:100C28000155B21A2B4467EB0303C4E90023BDE85E
:100C3800F08100BF704700BF00292DE9F043C0F2E2
:100C4800A6800026002BC0F29C80884694469E46CB
:100C5800154604460F46002B3DD18A4259D9B2FAAF
:100C680082F33BB1C3F120029F4020FA02F29D407B
:100C780017439C40290C220CB7FBF1FEA8B201FBDC
:100C88001E7742EA074700FB0EF3BB420AD97F19D9
:100C98000EF1FF3280F00581BB4240F20281AEF1D5
:100CA800020E2F44FF1AA4B2B7FBF1F301FB13772E
:100CB80044EA074700FB03F0B84208D97F1903F15B
:100CC800FF3280F0F080B84240F2ED80023B43EA08
:100CD8000E43002203E08B420FD900221346341C36
:100CE80018BF012460424FF0000565EB45015840EC
:100CF800514000196941BDE8F083B3FA83F2002A34
:100D080040F086808B4202D3844500F2DB800123C9
:100D1800E5E712B90123B3FBF2F5B5FA85F000282F
:100D28003BD1781B4FEA154E1FFA85FC0122B0FB18
:100D3800FEF8210C0EFB180741EA07470CFB08F3E5
:100D4800BB4207D97F1908F1FF3102D2BB4200F23A
:100D5800BD808846FF1AA4B2B7FBFEF30EFB1377DB
:100D680044EA07470CFB03FCBC4507D97F1903F18C
:100D7800FF3102D2BC4500F2A7800B4643EA084384
:100D8800ADE752426FEA060663EB43035DE7404274
:100D980061EB41014FF0FF3654E7C0F1200224FA1D
:100DA80002F107FA00F385404FEA154ED740194380
:100DB800B7FBFEF20B0C0EFB12771FFA85FC43EA19
:100DC80007430CFB02F79F4204FA00F407D95B19AA
:100DD80002F1FF3074D29F4272D9023A2B44DF1BD2
:100DE80089B2B7FBFEF80EFB187341EA03430CFB0C
:100DF80008F79F4208D95B1908F1FF315CD29F427E
:100E08005AD9A8F102082B44D81B48EA02428EE7B7
:100E1800C2F120032CFA03F10EFA02FE20FA03F7BE
:100E280041EA0E0E08FA02F028FA03F14FEA1E45CD
:100E38003843B1FBF5F8030C05FB18111FFA8EF7C0
:100E480043EA014107FB08F38B420CFA02FC09D97B
:100E580011EB0E0108F1FF3930D28B422ED9A8F1DF
:100E680002087144C91A80B2B1FBF5F305FB1311EE
:100E780040EA014107FB03F78F4208D911EB0E0145
:100E880003F1FF3016D28F4214D9023B714443EA72
:100E98000843C91BA3FB0C89494509D305D0002287
:100EA8001DE79646FEE6134611E794404445F6D200
:100EB800013BF4E70346EAE78846A5E7C846D1E7D9
:100EC80002468CE713460AE7023B57E7A8F10208F7
:100ED8002F443FE72DE9F041002B44D18A421546C3
:100EE80004464FD9B2FA82F70E464FB1C7F1200334
:100EF800B94020FA03F602FA07F50E4300FA07F4A0
:100F08004FEA154E230CB6FBFEF0AFB20EFB106194
:100F180043EA014307FB00F1994209D95B1900F143
:100F2800FF3280F0EC80994240F2E98002382B448D
:100F38005A1AA4B2B2FBFEF30EFB132244EA024291
:100F480007FB03F7974208D9521903F1FF3180F0E4
:100F5800D880974240F2D580023B43EA0040002601
:100F68003146BDE8F0818B4247D8B3FA83F6002EAC
:100F780048D18B4202D3824200F2CD800120314613
:100F8800BDE8F08112B90125B5FBF2F5B5FA85F88F
:100F9800B8F1000F77D14A1B4FEA154EAFB20126C0
:100FA800B2FBFEF0230C0EFB102143EA014107FBC4
:100FB80000F38B4207D9491900F1FF3202D28B4264
:100FC80000F2BA801046C91AA4B2B1FBFEF30EFBB8
:100FD800131144EA014407FB03F7A74208D964192F
:100FE80003F1FF3280F08F80A74240F28C80023BF1
:100FF80043EA00403146BDE8F081002630463146DC
:10100800BDE8F081C6F1200422FA04F5B3402B4371
:1010180020FA04FC01FA06F721FA04F54FEA134E08
:101028004CEA0707B5FBFEF8390C0EFB18551FFAFA
:1010380083FC41EA05450CFB08F1A94202FA06F2D5
:1010480004D9ED1808F1FF3467D3A0466D1ABFB272
:10105800B5FBFEF40EFB145547EA05410CFB04FCF6
:101068008C4504D9C91804F1FF355CD32C4644EAF1
:101078000844CCEB0101A4FB0223994248D344D095
:10108800204600266CE7C8F1200401FA08F305FAA7
:1010980008F520FA04F7E1404FEA154E1F43B1FB6B
:1010A800FEF63A0C0EFB16111FFA85FC42EA0143C4
:1010B8000CFB06F29A4200FA08F407D95B1906F10C
:1010C800FF3137D29A4235D9023E2B449B1ABFB220
:1010D800B3FBFEF00EFB103347EA03430CFB00F1B1
:1010E800994207D95B1900F1FF3221D299421FD9E1
:1010F80002382B445A1A40EA0646674650E710461B
:1011080016E70B4629E7134672E7B0409042B7D27C
:10111800601E002624E7304622E7A94295D9A8F1A7
:1011280002081D4492E78C45A0D9023C19449EE769
:101138001046DFE70E46C9E70238294443E700BFF7
:10114800DFF830D0002103E00B4B5B5843500431EB
:101158000A480B4B42189A42F6D30A4A02E0002387
:1011680042F8043B084B9A42F9D300F011F800F01A
:10117800C9F87047FFFF01201CE6020800000020A4
:10118800740B002074D30020E4DE0020FEE700008A
:101198000C4B1A68002142F001021A6099601A6823
:1011A80022F0847222F480321A60074A5A601A6860
:1011B80022F480221A60D960044B4FF000629A60D2
:1011C800704700BF003802401030002400ED00E0F6
:1011D800034B1A6810441A688242FCD3704700BF58
:1011E8007CD30020014B1868704700BF74D30020DF
:1011F8007047FEE7FEE7FEE7FEE770477047704777
:1012080008B503F027FD0D4A1368013313600C4B32
:101218001A6801321A6019680A23B1FBF3F203FB5A
:10122800121313B9074B01221A70074B1A680132BF
:101238001A601B68054B01221A7008BD74D3002080
:101248007CD3002080D3002078D3002081D30020D5
:10125800014B586B02F070BE50DA0020014B186B3E
:1012680002F06ABE50DA0020014802F0DFBA00BF7F
:1012780050DA002008B504484FF4005103F0B2FCDE
:10128800024812F05DFCF6E7000C02409095010858
:10129800084A136843F027031360074B1B68DA07F3
:1012A80006D5064B1B68DB0742BF054B01221A60B7
:1012B800704700BF042004E0F0ED00E0000E00E0FD
:1012C80084D30020064B1B684BB1064B1B68DB011F
:1012D80005D54FF060431A68002AFAD01870704795
:1012E80084D30020FCED00E0054B1B6810B533B13A
:1012F800441E14F8010F10B1FFF7E4FFF9E710BD21
:1013080084D3002000B593B003F08EFC5F4A136CC1
:1013180043F080531364A2F5E4320224136843F4C3
:10132800404313600123069307934FF480030D9302
:1013380008230E934FF4A8730F9306A807230C9461
:101348001094119301F0B2F808B1FFF793FF0F233F
:1013580001934FF4A0530390049301A84FF48053D2
:1013680005210294059301F0A3FA0028EDD103F0BA
:101378008DFC41F20103984201BF454A136843F4CA
:1013880080731360FFF784FF4248FFF7ADFF4248C0
:10139800424901240223102281E8180042610523F2
:1013A8004FF480528B60826200230A46CC600C6145
:1013B8004C618B618360C36003618361C3610362B5
:1013C8004362C36203634363836302F065FC0028DE
:1013D800BBD1334B334A1A604FF480421A61324A08
:1013E8005A60402258619860DA611862FE221846F5
:1013F800DA609A6101F068FD0028A6D12B4B2C49D0
:1014080098604FF4E13283E80600D860186198616B
:101418000C22D86118465A6102F0C2F8002894D10B
:1014280003F03AFC194A2348136B43F0080313638B
:101438004FF44053069306A903230993079408948D
:1014480003F086FA00F05AFFA04202D01A4812F0C0
:1014580035FB00F017FD012802D0184812F02EFBCA
:10146800174C23783BB1174B186807F093FE0CF024
:1014780063F800232370144C2378002BF0D000F07D
:1014880055FF03F047FE00232370E9E700380240C8
:10149800003C0240A8950108ACDA002090DA002050
:1014A800F0DA002000540040801A060050DA0020CC
:1014B80000440040000C0240B5950108C995010898
:1014C80080D3002044DB002081D3002010B50446DF
:1014D800C0B2FFF7F7FE204610BD4FF0FF3070474F
:1014E80008B503460A460248194612F0E7FAFEE72D
:1014F800E4950108434B1A6B42F001022DE9F04FC5
:101508001A631A6B404C42F001021A631A6C42F4D7
:1015180000321A641A6B89B042F4001200251A636B
:101528000746022604234FF00708204603A9039321
:10153800CDF81C8004960595069603F009FA03A9D0
:1015480008232046314C0393CDF81C8003F000FAA1
:101558002F4B236040224FF000634FF4806B4FF015
:10156800030A4FF400094FF4001820466360019302
:10157800A260E560C4F810B06561A561E561256207
:101588006562C4F828A0C4F82C90C4F8308002F032
:10159800A9FB3C63A7631F4C019B1F4A636020465D
:1015A8004FF4003323622260A560E560C4F810B0F0
:1015B8006561A561E5616562C4F828A0C4F82C904E
:1015C800C4F8308002F08EFB31467C630122112082
:1015D800A76301F0A9FE112001F0E8FE31462A4672
:1015E800102001F0A1FE102001F0E0FE29462A4655
:1015F800262001F099FE262001F0D8FE09B0BDE8AA
:10160800F08F00BF003802400000024088D300205D
:10161800A0600240D8D30020886002402DE9F04342
:10162800264C274E236B43F002032363236B43F0BE
:1016380002032363236B87B04FF0040943F00403CC
:101648002363012512234FF04008022730460DEB93
:1016580009010293CDF8048004970395CDF81490FE
:1016680003F076F92A463046414603F0A3FA4FF4D0
:10167800007830460DEB0901CDF80480CDF81490C0
:1016880003F066F92A463046414603F093FA049778
:101698000C4F0295082638460DEB09010196039573
:1016A80003F056F9384631462A4603F083FA236C8C
:1016B80043F40013236407B0BDE8F0830038024008
:1016C8000004024000080240204B21489A6B42F077
:1016D8000102F0B59A631A6B42F008021A631A6B9A
:1016E80042F010021A631A6B87B042F002021A63C2
:1016F80002244CF6B373032700260C2501A9019395
:10170800039605950294049703F022F9039606F1CF
:1017180080464FF6807301A906F501360D480193FE
:10172800059502940125049703F012F9304601A9A2
:10173800019402950494039503F00AF93046214672
:101748002A4603F037FA07B0F0BD00BF0038024060
:10175800000C02400010024070474FF0FF30704705
:101768004FF400534B60002070470000022881BFEF
:10177800034B092200201A6098BF0120704700BF60
:10178800E0DE00200020704770B50E46144640B9D0
:101798000D46AB1BA3420ADAFFF79FFE05F8010BC3
:1017A800F7E7044B09221A604FF0FF3070BD24EAB6
:1017B800E47070BDE0DE00200138012870B50E46E7
:1017C80014460AD80D46AB1BA34204DA15F8010BE0
:1017D800FFF77CFEF7E7204670BD034B09221A602D
:1017E8004FF0FF3070BD00BFE0DE002008B50D4BA4
:1017F8001A680AB90C4A1A601B68EFF30882184481
:1018080090420AD9094919220220FFF7D5FF084B4F
:101818000C221A604FF0FF3008BD024A10601846CB
:1018280008BD00BF28D40020E4DE00201696010879
:10183800E0DE002003680F2B10B539D11E4B1F4C7A
:101848001978022901D11E4814E023685A1C226025
:10185800032B12D8DFE803F00204060C194802E053
:10186800194800E0194802210A460CF08BF806E0F6
:10187800174802210A460CF085F800232360154B0F
:101888001B78012B03D0022B01D1134800E0134829
:101898000BF054FC00203E22014613460DF0B8FA26
:1018A80001203D2201461346BDE810400DF0B0BAB4
:1018B800BDE8104008F098B834DB00202CD4002094
:1018C80024B50108D4B40108E8B40108FCB401083F
:1018D80010B501085CDB0020FF80800000A0DF005D
:1018E800094B13B5186840F6090106F033FF074B9A
:1018F80007491A680446684612F02AF920466946DC
:1019080003F04CFE02B010BD58DB00204CDB002079
:101918003096010838B50368262B044600F02A8162
:10192800B3F5107F00F070811D2B40F06981456888
:10193800B649284605F0AEF928460E2105F06AFC9E
:101948002846002105F0D8F940F60801606806F03D
:1019580001FFAF49054603F021FE2846AD4903F0D3
:1019680045FE28460C2103F007FE2846AA4903F045
:10197800F1FD40F60901606806F0ECFEA74905464E
:1019880003F034FE2846A64903F008FE28460E2137
:1019980003F0F2FD41F60901606806F0DBFEA1499B
:1019A800054603F0FBFD28469F4903F01FFE284625
:1019B8000C2103F0E1FD28469C4903F0CBFD40F6DD
:1019C8000C01606806F0C6FE0221054603F0D4FD4E
:1019D8002846974903F0E2FD2846964903F006FE9B
:1019E80040F60D01606806F0B5FE934905460022F1
:1019F80004F089F828460122904904F084F8284622
:101A08008F4904F0A5F8284602228E4904F07BF895
:101A18004FF40161606806F09DFE87490546002283
:101A280004F071F828460122874904F06CF828462A
:101A3800834904F08DF828468449022204F063F8AB
:101A4800032228467F4904F05EF840F612016068D8
:101A580006F080FE7E49054603F0A0FD28467D4934
:101A680003F0C4FD4FF42A61606806F073FE7A49FA
:101A7800054603F093FD2846764903F0B7FD40F686
:101A8800A121606806F066FE7449054603F086FDEC
:101A98002846704903F0AAFD40F61F01606806F069
:101AA80059FE6F49054606F0ABF92846644906F029
:101AB800CFF94FF40261606806F04CFE69490546AB
:101AC80003F06CFD2846684903F090FD40F62101BB
:101AD800606806F03FFE6549054605F044FD284666
:101AE800574905F07FFD2846012105F05EFD604B52
:101AF8006068012240F624011A7006F02BFE5A494C
:101B0800054603F073FD28465A4903F047FD40F6A1
:101B18002601606806F01EFE5749054603F03EFDA3
:101B28002846444903F062FD40F62801606806F043
:101B380011FE5249054603F031FD28464A4903F093
:101B480055FD40F60E01606806F004FE1E220021D5
:101B5800054603F0ADFF4A4B19682846C1F15F01FD
:101B680003F0D0FE606840F6080106F0F3FD454B2F
:101B780018602DE0806806F0ACFD40F60E02904239
:101B88000146E36817D004DC40F60D02904208D005
:101B980038BDB0F5016F1FD040F61F02904225D026
:101BA80038BD052B30D1606806F0D4FD04F093F9F8
:101BB8002F4B987038BD052B26D1606806F0CAFDFA
:101BC80003F093FF2E4BC0F15F001860284B58605C
:101BD800BDE83840FFF784BE052B15D1606806F0D4
:101BE800B9FD04F078F9224B587038BD022B0BD19F
:101BF800254B186800F09CF8244B01221A7038BD58
:101C0800BDE8384007F0F0BE38BD00BF20590208D3
:101C18003496010844390208528D2500FC790208DF
:101C2800379601083A9601080047020852258D00A8
:101C38003D96010858AA02084196010846960108EF
:101C480080B70208499601084D9601085496010884
:101C58005B960108CC4E02085E9601086096010862
:101C6800119701083F970108189B0208639601081D
:101C780038DB00207296010876960108399701082A
:101C88004CDB002030D4002078DB002034D4002046
:101C980030B5134885B004F0E7FF124805F068FF37
:101CA80006F05CFD002503460095019511210E4ABA
:101CB8000E4805F009FC06233F2201930C4B0090C7
:101CC80004460293682113460395722007F01EFB11
:101CD800084B1860204606F07AFC204605B030BD57
:101CE800A1670008597800081D19000844970108E1
:101CF8003D18000844DB002005F0CEBF08B5036896
:101D08000F2B0DD16FF07F400BF018FA06480BF03F
:101D1800E7F9064805212822BDE808400BF0F2BF84
:101D2800BDE8084007F060BEBC89020840D4002026
:101D38000C4B10B50446186806F049FC0A4B1868A5
:101D480006F045FC094B186806F041FC084B18687A
:101D580006F03DFC204606F004F9BDE810400BF003
:101D6800EBBB00BF58DB002078DB002064DB0020E1
:101D780074DB002003680F2B37B504462AD0262BC6
:101D880033D1806806F0A5FC40F611029042E36862
:101D980004D040F6120290420CD028E0022B26D143
:101DA800144B1868FFF7C4FF134B0021186804F0A0
:101DB80043FB0BE0022B1AD10F4B1D680024214670
:101DC8002846013404F038FB652CF8D10B4B01226E
:101DD8001A700CE001A90422406806F0ACF80198DA
:101DE8000BF0AAF90CF05EF901E007F0FDFD03B075
:101DF80030BD00BF78DB00207CD4002034D4002024
:101E080003680F2B13B5044624D0262B2DD18068E8
:101E180006F05FFC40F60B029042E36804D040F6FF
:101E28000E0290420CD022E0124A0124022B1470B8
:101E38001DD1114B1868FFF77BFF104B1C7016E083
:101E4800022B14D10E4B1868FFF772FF0B4B0122BF
:101E58001A700CE001A90422406806F06CF8019899
:101E68000BF06AF90CF01EF901E007F0BDFD02B0B5
:101E780010BD00BF88D4002064DB002034D40020CB
:101E880058DB00202DE9F04F4FF47F0087B00BF0AE
:101E980053F90CF007F96FF07F400BF04FF9DFF8BA
:101EA800A483D448DFF8A093D34FD44EDFF89CB373
:101EB800DFF89CA30BF014F9A0210522D0480BF001
:101EC800FFFE40460BF00CF928220521CD480BF007
:101ED80011FF0BF031FB002006F082F90BF02CFB10
:101EE80000200BF029F96FF0704006F079F906F040
:101EF80035FC494606F000FA00240625C24B386036
:101F0800214601930294009520464FF4A072F023D5
:101F180007F0ACFACDF804B0306002942146009581
:101F280020464FF4A072F02307F0A0FA21464FF4A0
:101F3800A072F023CAF800008DE820080294204619
:101F480007F094FADFF80CC3CDF814C0CCF8000001
:101F58003068DFF804B3FFF7EBFE06F0FFFB4946F5
:101F680006F0CAF933683860009340F60B039622EE
:101F78000193214632230295204605F02AFEDFF818
:101F8800DC92A24FC9F80000414605F061FFD9F87C
:101F980000009F4905F034FFD9F80000012105F041
:101FA80068FFD9F80000394605F0CEFD3368009384
:101FB80040F60C03962201930295322320463C21D9
:101FC80005F007FE4146CBF8000005F041FFDBF8BD
:101FD8000000904905F014FFDBF80000012105F02E
:101FE80048FFDBF80000DFF878B2394605F0ACFDB1
:101FF8003368009340F60D0396220193029532232D
:102008002046782105F0E5FD4146CBF8000005F0B3
:102018001FFFDBF80000804905F0F2FEDBF8000046
:10202800012105F026FFDBF80000DFF838B2394659
:1020380005F08AFD3368009340F60E03962201935B
:10204800214602953223A02005F0C3FD734B41467B
:10205800186005F0FDFE714B7149186805F0D0FE57
:102068006E4B0121186805F004FF6C4B394618685F
:1020780005F06AFD3368009340F60F03962201933A
:10208800029532233C21A02005F0A3FD4146CBF860
:10209800000005F0DDFEDBF80000624905F0B0FE47
:1020A800DBF80000012105F0E4FEDBF80000DFF8B2
:1020B800B8B1394605F048FD336800934FF4016321
:1020C80096220193029532237821A02005F081FD04
:1020D8004146CBF8000005F0BBFEDBF80000524992
:1020E800DFF8888105F08CFEDBF80000012105F09F
:1020F800C0FEDBF80000DFF878B1394605F024FDB2
:10210800DAF800300093322140F611034FF4A07240
:10211800019302950B46204605F05BFD4349CBF839
:10212800000005F095FEDBF80000414905F068FE67
:10213800DBF80000012105F09CFEDAF8003000937E
:1021480040F612034FF4A072019302953223204601
:102158006E2105F03EFD3549C8F8000005F078FE0F
:10216800D8F80000334905F04BFED8F800000121EB
:1021780005F07FFED8F80000394605F0E5FCDAF8EE
:1021880000300093C82140F614030A4601930295D3
:102198001923142004F026F8274B2849186004F066
:1021A8000DF8DDF814C0264FDCF80030009332211A
:1021B80040F613034FF4A072019302950B46204694
:1021C80005F007FD1949386005F042FE38681849DE
:1021D80005F016FE3868012105F04BFE33680294BD
:1021E8008DE8280040F6150396220393B421232393
:1021F80014203FE0BC89020884D4002078DB00204A
:10220800209901083B990108091E0008597800081F
:10221800509901085A990108649901086CD4002062
:10222800729901087C99010885990108189B020890
:1022380090990108959901087CD40020FD5E00085A
:1022480078D4002020590208051D00087D1D0008CB
:1022580064DB002074DB002080D400203CD4002004
:1022680068D400208CD4002090D4002074D400209E
:1022780070D4002003F0FCFA174C184B18600BF0D0
:102288005BF92146D9F8000006F036F8144B1860BF
:10229800144B2146186806F02FF8134B2146186096
:1022A800DBF8000006F028F8104B21461860D8F833
:1022B800000006F021F80E4B21461860386806F039
:1022C8001BF80C4B1860FFF7E3FC0B4B1860012060
:1022D80007B0BDE8F08F00BF011D000838D400200A
:1022E80070DB00206CD400207CDB00206CDB00203D
:1022F80080DB002068DB002058DB002008B50121C6
:102308004FF4805000F0A4F802F002FD022002F021
:10231800AFFC002002F01EFE052002F0A9FC0BF025
:10232800FFFEB0FA80F0400908BD00001FB502F0BA
:1023380061FE0E4B9A88C2F1F00202921A895B780C
:10234800019203B101238DF80C30094B9DF80C2044
:102358001978914206D01A7001A800238DF80D3023
:102368000AF0A0FE05B05DF804FB00BF46DD0020C2
:1023780094D400204FF0C04318807047014B188058
:10238800704700BF0000026000EB4101884204D0A2
:10239800024B30F8022B1A80F8E770470000026001
:1023A80000EB4101884204D0024B1B8820F8023B15
:1023B800F8E770470000026010B5A0B001A800213E
:1023C800142211F02DFB06A80021682211F028FB29
:1023D80000221346134914480BF0C6FDF0210446A9
:1023E8004FF4A072002009F04AFC4FF4A072F021CB
:1023F800002009F02DFC0623204601A9039309F0CB
:10240800C6FB0A4B0E930A4B0F930A4B11930A4BC8
:102418001593204606A9094A094B09F0D6FB20B0B6
:1024280010BD00BF80D1020810D002087D2300082B
:102438008523000891230008A9230008FDAE0008A1
:1024480099B50008012914BF4FF0FF3000207047EC
:102458000E4B034070B505460E4603B920B90C482B
:102468004FF48861FFF73CF8012E0A4C05D908485B
:1024780040F24241FFF734F800E016B1236B1D43E8
:1024880002E0236B23EA0505256370BD00EE8B810E
:10249800002202080038024002484FF448410CF07C
:1024A80039BA00BF740B002070470000F8B5036804
:1024B8000F2B044604D9A24840F21511FFF710F873
:1024C8002368D80703D42368990756D4B7E063680C
:1024D800012B06D9052B04D099484FF48D71FEF7CE
:1024E800FFFF984B9A6802F00C02042A07D09A68FA
:1024F80002F00C02082A0BD15B685A0208D5914BEE
:102508001B689B03DFD56368002BDCD10120F8BD75
:102518008D4D00232B7002F0A5FB0646894B1B68E6
:102528009F0308D502F09EFB41F28833801B984236
:10253800F4D90320F8BD23792B70636873B102F0D6
:1025480091FB05467F4B1B689803BCD402F08AFBBD
:1025580041F28833401B9842F4D9EAE702F082FB43
:102568000546784B1B689903ADD502F07BFB41F219
:102578008833401B9842F4D9DBE7E368012B04D980
:102588006F484FF4AD71FEF7ABFF23691F2B04D9D9
:102598006B4840F25B11FEF7A3FF6A4B9A6812F092
:1025A8000C0F07D09A6802F00C02082A18D15B6851
:1025B8005A0215D4634A13689B0702D5E368012BB6
:1025C800A4D11168F82393FAA3F3B3FA83F320692B
:1025D800DBB2984021F0F80140EA010313602EE0D5
:1025E800E2685A4BEAB101221A6002F03BFB054649
:1025F80054490B689F0705D402F034FB401B64283C
:10260800F6D996E70A68F82393FAA3F3B3FA83F3A3
:102618002069DBB2984022F0F80240EA02030B601E
:102628000DE01A6002F01EFB0546464B1B689E072C
:1026380005D502F017FB401B6428F6D979E7236813
:102648001D0703D42368580728D452E06369012B77
:1026580004D93B484FF4CD71FEF742FF62693C4B09
:1026680072B101221A6002F0FDFA0546354B5B6F24
:102678009907E7D402F0F6FA401B6428F6D958E720
:102688001A6002F0EFFA05462E4B5B6F9A07D9D510
:1026980002F0E8FA401B6428F6D94AE7A368012B40
:1026A80030D8284A136C43F080531364A2F5E432FF
:1026B800136843F48073136002F0D4FA0546254B7F
:1026C8001B68DB0526D5244D00232B7002F0CAFABF
:1026D80006461C4B1B6F9F0722D4237A2B70A368D6
:1026E800012B3BD102F0BEFA0546164B1B6F9E0725
:1026F8001ED5A369022B40D911484FF40271FEF789
:10270800EFFE3AE0052BCCD00D484FF4E271FEF70E
:10271800E7FEC6E702F0A6FA401B6428CFD908E70F
:1027280002F0A0FA41F28833801B9842D1D900E721
:1027380002F098FA41F28833401B9842D5D9F8E65E
:102748002D220208003802400238024000004742A9
:10275800800E4742007000407038024002F082FA52
:102768000546504B1B6F9807C3D502F07BFA41F220
:102778008833401B9842F4D9DBE6A2690AB90020E5
:10278800F8BD484B9B6803F00C03082B3FF4BEAE22
:10279800022A454D75D1E36933F4800304D04348D8
:1027A80040F21121FEF79CFE236A3F2B04D93F48D3
:1027B80040F21221FEF794FE636AC03BF02B04D965
:1027C8003A4840F21321FEF78BFEA36A23F0040275
:1027D800022A08D0042B06D0082B04D033484FF423
:1027E8000571FEF77DFEE36A043B0B2B04D92F48E5
:1027F80040F21521FEF774FE00232B6002F032FA36
:102808000746284E3368990105D502F02BFAC01BFC
:102818006428F6D98DE647F6C07090FAA0F0B0FAB1
:1028280080F04FF4403191FAA1F1B1FA81F14FF003
:10283800706292FAA2F2B2FA82F2276AE3693B4323
:1028480043F00057636AC0B2834047EA0300A36AB3
:102858005B08C9B2013B8B40D1B2E26A03438A40AC
:102868001343736001232B6002F0FCF904460D4BFF
:102878001B689A0183D402F0F5F9001B6428F6D985
:1028880057E600232B6002F0EDF90446054B1B6860
:102898009B017FF574AF02F0E5F9001B6428F5D9B8
:1028A80047E600BF00380240600047422D22020878
:1028B8000368013B0E2B70B504460D4604D9A548A4
:1028C80040F27321FEF70CFE072D04D9A1484FF4FE
:1028D8001D71FEF705FEA04B1A6802F00F02954223
:1028E80040F28180EAB21A701B6803F00F03AB4212
:1028F80001D0012070BD23689E071DD5A36833F061
:10290800800212D023F02002902A0ED023F0400239
:10291800A02A0AD023F01002C02A06D0F02B04D037
:102928008C4840F28A21FEF7DBFD8C498B6823F046
:10293800F002A36813438B602368DD0704D423687F
:10294800580700F1CE80E4E06368022B04D981487F
:1029580040F29121FEF7C4FD6268804B012A196894
:1029680002D111F4003F06E0022A02D111F0007FE3
:1029780001E011F0020FBCD0996821F003010A436D
:102988009A6002F06FF96368012B05460ED1734B0C
:102998009B6803F00C03042BD1D002F063F941F2D9
:1029A8008833401B9842F2D9032070BD022B14D102
:1029B8006A4B9B6803F00C03082BC0D002F052F955
:1029C80041F28833401B9842F2D9EDE702F04AF908
:1029D80041F28833401B9842E6D8604B9B6813F05D
:1029E8000C0FF3D1ABE7236899071DD5A36833F023
:1029F800800212D023F02002902A0ED023F0400249
:102A0800A02A0AD023F01002C02A06D0F02B04D046
:102A1800504840F2D921FEF763FD50498B6823F0F6
:102A2800F002A36813438B602368DA0709D44A4B82
:102A3800EAB21A701B6803F00F03AB427FF459AF78
:102A48007DE76368022B04D942484FF43871FEF7DA
:102A580047FD6268414B012A196802D111F4003F11
:102A680006E0022A02D111F0007F01E011F0020F06
:102A78003FF43FAF996821F003010A439A6002F0DE
:102A8800F1F86368012B06460DD1344B9B6803F0BF
:102A98000C03042BCBD002F0E5F841F28833801BFD
:102AA8009842F2D980E7022B15D12C4B9B6803F092
:102AB8000C03082BBBD002F0D5F841F28833801BF9
:102AC8009842F2D970E702F0CDF841F28833801BC2
:102AD80098423FF669AF214B9B6813F00C0FF2D177
:102AE800A5E7E36833F480520CD023F40062B2F512
:102AF800A05F07D0B3F5C05F04D016484FF44C71FF
:102B0800FEF7EEFC15498B6823F4E052E3681343A3
:102B18008B6023681B0718D5236933F480520CD0C7
:102B280023F40062B2F5A05F07D0B3F5C05F04D00C
:102B3800084840F23731FEF7D3FC084A2169936808
:102B480023F4604343EAC10393600F2002F05AF86C
:102B5800002070BD2D220208003C024000380240CF
:102B680030B51D4CA36803F00C03042B30D0082BA0
:102B780030D16268636802F03F0513F4800F47F6AE
:102B8800C071636891FAA1F1B1FA81F147F6C0709A
:102B980004BF124AB2FBF5F2C9B200EA030020FAF8
:102BA80001F01CBF0E49B1FBF5F202FB00F30A4A23
:102BB80050684FF4403292FAA2F2B2FA82F2D2B2DC
:102BC80000F44030D04001304000B3FBF0F030BD9D
:102BD800034830BD014830BD003802400024F400ED
:102BE80000127A0008B5FFF7BBFF094B9A68F0237B
:102BF80093FAA3F3B3FA83F302F0F002DBB222FAFA
:102C080003F3044AD35CD840034B186008BD00BFE7
:102C1800003802401D2202080000002008B5FFF716
:102C2800E1FF084B9A684FF4E05393FAA3F3B3FA21
:102C380083F302F4E052DBB222FA03F3024AD35CD4
:102C4800D84008BD003802401D22020808B5FFF729
:102C5800C9FF084B9A684FF4604393FAA3F3B3FA99
:102C680083F302F46042DBB222FA03F3024AD35C34
:102C7800D84008BD003802401D2202082DE9F04165
:102C88000D460446164601F0EDFFC5F30748074612
:102C98002368B8F1010F0CBF58699869C04380B226
:102CA800284214BF0120002028B35A69520510D5C4
:102CB8001A6842F400721A606FF480625A61042341
:102CC800A3630120002384F8350084F83430BDE87C
:102CD800F081731CDCD046B9012384F83530002319
:102CE80084F834300320BDE8F08101F0BBFFC01B3D
:102CF800B042CDD9F0E7BDE8F0812DE9F0410E46AC
:102D08001D460446904601F0ADFF330C0746B8F166
:102D1800000F34D15FFA83F82368B8F1010F0CBFB4
:102D28005B699B69DB439BB2334214BF01230023D9
:102D3800C3B16A1CF0D0CDB101F094FFC01BA8420A
:102D4800EAD913E06B1C10D12368B8F1010F0CBF4E
:102D58005B699B69DB439BB233420CBF01230023B1
:102D6800002BEFD10020BDE8F0815DB9012384F884
:102D78003530002384F834300320BDE8F0815FFA51
:102D880083F8E1E701F06EFFC01BA842DCD9EDE74C
:102D980070B516460268136843F4807313600D46D5
:102DA80000224FF0011133460446FFF7A6FF20BB6F
:102DB80023692268B3F5804F03D105F0FE0515613C
:102DC80013E005F44073DB1143F0F0031361204670
:102DD8000B493246FFF752FF20B1A36B042B0CD1ED
:102DE800012070BD2368EDB21D61204605493246B9
:102DF800FFF744FF0028F0D100E0032070BD00BFBA
:102E080008000100020001000368F7B516461A68B9
:102E180042F480621A601A6842F480721A600D46A1
:102E280000224FF0011133460446FFF766FFD0B980
:102E380023692268B3F5804F04D145F00105EDB24E
:102E4800156133E005F44073DF0947F0F0031361BF
:102E580020461B493246FFF711FF30B1A36B042B04
:102E680001D1012029E0032027E023681549EDB2AC
:102E780032461D612046FFF701FF02460028EDD1CA
:102E8800236859690191996901910199196841F477
:102E98008071196020464FF001113346FFF72DFF6E
:102EA8000028E0D1226847F0F10313612046054964
:102EB8003246FFF7E3FE0028D0D103B0F0BD00BFD3
:102EC800080001000200010070B50446002800F067
:102ED800BB8003685D4A93420CD002F5806293423E
:102EE80008D002F58062934204D059484FF4967195
:102EF800FEF7F6FA6368574A013B934204D95448EF
:102F080040F22D11FEF7ECFAA36833F4804304D0A5
:102F18004F484FF49771FEF7E3FAE36823F47F73A1
:102F280023F0030323B14A4840F22F11FEF7D8FAE1
:102F3800236923F40043B3F5804F04D044484FF489
:102F48009871FEF7CDFA6369012B04D9404840F225
:102F58003111FEF7C5FAA36933F0FE0304D03C48EB
:102F68004FF49971FEF7BCFAE36933F0400304D0DB
:102F7800374840F23311FEF7B3FA236A33F080037F
:102F880004D033484FF49A71FEF7AAFA94F8353012
:102F980013B92046FEF742FB22682F4D022384F81E
:102FA8003530136823F001031360FFF737FE6368B9
:102FB80022682A49B0FBF1F1AB422E4688BF4FF494
:102FC8009675516082BF69434FF47A75B1FBF5F18C
:102FD800B34201F10101116208D85B00B0FBF3F0C4
:102FE800C0F30B03032B98BF042016E0A16849B96E
:102FF80003EB4303B0FBF3F0C0F30B0363B140F4FE
:1030080000400AE019214B43B0FBF3F0C0F30B0377
:1030180013B140F4404000E00120216AE369D06127
:103028000B431360E16823690B439360A1696369EB
:103038000B43D360136843F001031360002001239E
:10304800A06384F8353070BD012070BD0054004085
:103058007C2202087F1A0600A086010040420F0069
:103068002DE9F34190F83540E4B2012C05461746A6
:103078001E465ED1002A5AD0002B58D003689B699F
:1030880013F0020855D190F83430012B51D0122397
:1030980080F8353080F83440C0F83880089AFFF757
:1030A80077FE28B1AB6B85F83480042B0DD13EE058
:1030B8002B685A6901929B690193019B1F49089BE0
:1030C80028460022FFF719FE08B1032032E02A68DB
:1030D8003B7813615169731E49079BB202D40137CB
:1030E8001E460EE043B928461449089B0022FFF704
:1030F80004FE0028E9D107E07B781361023EB6B2EE
:103108000237002EDAD1EEE72A680D49136843F436
:103118000073136028460122089BFFF7EEFD002884
:10312800D3D1012385F8353085F8340002E02046F4
:1031380000E0022002B0BDE8F08100BF800001007D
:10314800020010002DE9FF4190F83550EDB2012D35
:10315800044617461E4640F0A980002A00F0A480C5
:10316800002B00F0A18003689B6913F0020840F06F
:103178009D8090F83430012B00F09880222380F84D
:10318800353080F83450C0F838800A9AFFF73CFE92
:1031980028B1A36B84F83480042B33D184E02368EE
:1031A800012E1A680CD122F480621A605A690192C1
:1031B8009A690192019A1A6842F400721A6016E03C
:1031C800022E0CD122F480621A601A6842F400625E
:1031D8001A605A6902929B690293029B07E042F4C3
:1031E80080621A605A6903929B690393039B032EBA
:1031F800204640D8012E0BD138490A9B0022FFF700
:103208007CFD08B1032065E023681B693B704FE033
:10321800022E33490A9B4FF000020ED1FFF76DFDD5
:103228000028EFD123681A6842F400721A601B69FB
:103238003B7023681B697B703AE0FFF75EFD02462E
:103248000028DFD12368196821F4806119601B699F
:103258003B70204622490A9BFFF74FFD0028D1D139
:1032680023681A6842F400721A601B697B7023682D
:103278001B69BB701CE019490A9B0022FFF73DFD42
:103288000028BFD123681B693B70226853695B071C
:1032980059BF7B1C06F1FF36BB1C126944BF7A700C
:1032A800023EB6B21F46A2E7284613E0022011E00C
:1032B80022680C49136823F4006313602046012236
:1032C8000A9BFFF71AFD00289CD1012384F83530AA
:1032D80084F8340004B0BDE8F08100BF400001006C
:1032E800040001000200100090F83500704700004B
:1032F800C31E042B10B5044603D90948A421FEF7C0
:10330800EFF8084AD1684FF6FF030B4043F0BF635C
:1033180043F4003304F0070443EA0423D36010BDE8
:10332800CB22020800ED00E00F2A70B505460C46D6
:10333800164603D91A48BC21FEF7D2F80F2C03D938
:103348001748BD21FEF7CCF8164BDB68C3F3022300
:10335800C3F10702191D042A28BF042206298CBFBD
:10336800033B0023012101FA03F0914001390138A0
:103378000C409C400640002D44EA06044FEA041421
:10338800AFBF05F1604505F00F05074BE4B2A5BFD7
:1033980005F56145E4B25C5585F8004370BD00BF92
:1033A800CB22020800ED00E014ED00E010B5041E89
:1033B80003DA0648D021FEF793F86109012304F0E7
:1033C8001F04034AA34042F8213010BDCB22020853
:1033D80000E100E00138B0F1807F3FBF064B074AAB
:1033E8005860F0213FBF82F8231000200722986020
:1033F80034BF1A600120704710E000E000ED00E0E3
:103408002DE9F8434268624B9A42044604D9614860
:1034180040F22E71FEF764F8E36833F4005304D0E9
:103428005C4840F22F71FEF75BF8236933F4806241
:1034380007D0B3F5C06F04D056484FF4E661FEF7E5
:103448004FF862694FF6F373134003B922B9514834
:1034580040F23171FEF744F8266821693369E06962
:1034680023F44052E3681343A2683361F3681143BD
:10347800626923F416430A43024323F00C031343FF
:10348800F360736923F44072A369B0F5004F43EA0F
:1034980002037361404B36D19E4203D003F580632B
:1034A8009E4216D1FFF7D2FB6768192568437F0053
:1034B800B0FBF7F7FFF7CAFB62684FF06408684390
:1034C800B7FBF8F752003F01B0FBF2F9FFF7BEFB7C
:1034D80015E0FFF7A3FB6768192568437F00B0FB79
:1034E800F7F7FFF79BFB62684FF064086843B7FB88
:1034F800F8F752003F01B0FBF2F9FFF78FFB4543A5
:103508006068400034E09E4202D0244B9E4216D1AF
:10351800FFF79CFB676819256843BF00B0FBF7F706
:10352800FFF794FB62684FF064086843B7FBF8F74D
:1035380092003F01B0FBF2F9FFF788FB15E0FFF7B7
:103548006DFB676819256843BF00B0FBF7F7FFF705
:1035580065FB62684FF064086843B7FBF8F79200B0
:103568003F01B0FBF2F9FFF759FB45436068800063
:10357800B5FBF0F0B0FBF8F008FB10921201323204
:10358800B2FBF8F303F00F033B43B360BDE8F883E5
:10359800A037A0001D2302080010014000140140BC
:1035A80010B5044600286CD081690368364AC1B159
:1035B80093420FD0A2F54C4293420BD002F58062A1
:1035C800934207D002F54C42934203D02F48FC2186
:1035D800FDF786FFA36933F440731CD02B48FD2107
:1035E80017E0934217D02A4A934214D002F580621A
:1035F800934210D002F5806293420CD002F58062AB
:10360800934208D002F54442934204D01F4840F246
:103618000111FDF765FFA36833F4805304D01B48FC
:1036280040F20311FDF75CFFE36933F4004304D073
:1036380016484FF48271FDF753FF94F8393013B9E7
:103648002046FDF757FF2268022384F83930D368F3
:1036580023F40053D3602046FFF7D2FE23681A698B
:1036680022F490421A615A6922F02A025A61DA68F1
:1036780042F40052DA6000200123E06384F8393014
:1036880010BD012010BD00BF001001401D2302081D
:1036980000440040134690F83920D2B2012A10B5F0
:1036A800044601D0222A2ED159B353B394F83820B6
:1036B800012A28D0012284F838200022E26394F8F5
:1036C8003920206BA384222A0CBF3222122284F8CC
:1036D80039200E4AE3842162C2630D4A02640D4A0E
:1036E80082642268043200F0DFFB23686FF0400236
:1036F8001A605A69002042F080025A6184F8380042
:1037080010BD012010BD022010BD00BFA137000868
:10371800CF3700081738000838B5134690F8392015
:10372800D2B2012A04460D4601D0122A2BD145B344
:103738003BB394F83820012A25D0012284F8382098
:103748000022E26394F83920606BA385122A0CBF2B
:103758003222222284F839200C4AA5622168C263E9
:103768000B4A02640B4A826404312A4600F09CFB2F
:1037780022685369002043F04003536184F83800FD
:1037880038BD012038BD022038BD00BFD937000838
:103798000D3800081738000808B50368826B1B68E5
:1037A80013F480730AD1D38413685A6922F0800213
:1037B8005A61DA6842F04002DA6008BD104601F04A
:1037C800B7FE08BD704708B5806BFFF7FBFF08BD63
:1037D8000268126812F4807208B5836B0DD11968FB
:1037E800DA854A6922F040024A6193F83920322A80
:1037F8000CBF1222012283F83920184601F09EFEE0
:1038080008BD704708B5806BFFF7FBFF08BD806BEC
:1038180008B50023C385C384012380F83930C36BFE
:1038280043F01003C36301F08FFE08BD1FB50368A2
:103838001968DA68C90704460AD5D00508D51A6890
:1038480000925A680092009AE26B42F00102E26329
:1038580019685A6989070AD5D00708D51A680192E4
:103868005A680192019AE26B42F00402E263196815
:103878005A6949070AD5D00708D51A6802925A68C2
:103888000292029AE26B42F00202E26319685A69F4
:1038980009070AD5D00708D51A6803925A6803920F
:1038A800039AE26B42F00802E2631968DA68890653
:1038B80042D5900640D594F8392002F0EF02222A2A
:1038C8003AD1A2682169B2F5805FA26A0BD15B6820
:1038D80021B9C3F3080322F8023B02E0DBB222F865
:1038E800013BA2620AE019B9511CA1625B6804E0BD
:1038F8005B68511CA16203F07F031370E38D013BE9
:103908009BB2E385C3B92368DA6822F02002DA6043
:1039180094F83920322A1FBFDA6822F48072DA60FC
:103928005A691BBF22F001025A611223012384F84D
:103938003930204601F002FE23681968DA68090662
:1039480028D5100626D594F8392002F0DF02122A6D
:1039580020D1A268B2F5805F226A0AD11188C1F32A
:1039680008015960216909B9023200E00132226276
:1039780003E0511C216212785A60E28C013A92B23B
:10398800E2843AB9DA6822F08002DA60DA6842F052
:103998004002DA601968DA68490619D5520617D55F
:1039A800DA6822F04002DA6094F83920322A1FBF20
:1039B800DA6822F48072DA605A691BBF22F00102C9
:1039C8005A612223012384F83930204601F0B0FDE2
:1039D800E36B2BB1012384F83930204601F0B4FDA4
:1039E80004B010BD0B6833F0060370B505460C46ED
:1039F80003D047489721FDF773FD636833F002034E
:103A080003D043489821FDF76BFDA36833F0040207
:103A180005D0082B03D03E489921FDF761FDE368E6
:103A280033F0100205D0202B03D039489A21FDF736
:103A380057FD236933F4807303D035489B21FDF784
:103A48004FFD636933F4007303D031489C21FDF7BF
:103A580047FDA36933F4806303D02D489D21FDF70A
:103A68003FFDE36933F4006303D029489E21FDF745
:103A780037FD236A33F4805303D025489F21FDF78F
:103A88002FFD636A33F4005303D02148A021FDF7CA
:103A980027FDA36A33F4804303D01D48A121FDF715
:103AA8001FFDE36A33F4004303D01948A221FDF750
:103AB80017FD236B33F4002303D01548A321FDF72A
:103AC8000FFD2068134A55F82030A6681A4063682D
:103AD80046EA0301E36819432369194363691943F3
:103AE800A3691943E3691943236A1943636A1943AC
:103AF800A36A1943E36A0B43216B0B431343082E54
:103B080008BF43F0400345F82030002070BD00BFD7
:103B18006D2302088000F7FF0B680F2B70B5054670
:103B28000C46164603D92848F821FDF7D9FC6368E6
:103B3800013B0E2B03D92448F921FDF7D1FCA368DA
:103B4800013BFE2B03D92048FA21FDF7C9FCE368A5
:103B58000F2B03D91C48FB21FDF7C2FC2369013B4D
:103B68000F2B03D91848FC21FDF7BAFC6369013B08
:103B7800102B03D91448FD21FDF7B2FCA36933F0DB
:103B8800405303D01048FE21FDF7AAFC05EB86023E
:103B9800A1695368A56803F0404623680B43616830
:103BA80043EA011141EA05212369E568013B41EA3D
:103BB800054545EA03516369023B41EA0363334320
:103BC8005360002070BD00BF6D230208B3F5804F1D
:103BD80070B505460C46164656D10B680F2B04D90E
:103BE8002C484FF49371FDF77BFC6368013B0E2B67
:103BF80004D9284840F22711FDF772FCA368013B5D
:103C0800FE2B04D923484FF49471FDF769FCE3684F
:103C18000F2B04D91F4840F22911FDF761FC2369D5
:103C2800013B0F2B04D91B484FF49571FDF758FC45
:103C38006369013B102B04D9164840F22B11FDF79C
:103C48004FFCA36933F0405304D012484FF49671E7
:103C5800FDF746FC55F82630A269A16803F04040FC
:103C680023681343626843EA021242EA0122236985
:103C7800E168013B42EA014141EA03526369023BC0
:103C880042EA0363034301E06FF0704345F82630CE
:103C9800002070BD6D23020870B50E461546044617
:103CA800F0B190F83D300BB9FDF70EFD04F10801B5
:103CB8002068FFF797FE3146A2682068FFF72CFFBF
:103CC8002946A268236B6068FFF780FFA168226815
:103CD80052F8213043F0010342F82130002070BD32
:103CE800012070BD38B50446002800F0D480036870
:103CF8006A4A934231D0183293422ED018329342F6
:103D08002BD01832934228D01832934225D018323B
:103D1800934222D0183293421FD0183293421CD0BB
:103D280002F55672934218D01832934215D01832C1
:103D3800934212D0183293420FD0183293420CD0CB
:103D48001832934209D01832934206D0183293425F
:103D580003D05348BF21FDF7C3FB636833F0C0634A
:103D680006D0B3F1006F03D04D48C021FDF7B8FB72
:103D7800A36833F0400205D0802B03D04848C12106
:103D8800FDF7AEFBE36833F4007303D04448C22167
:103D9800FDF7A6FB236933F4806303D04048C321B1
:103DA800FDF79EFB636933F4006206D0B3F5805FCC
:103DB80003D03B48C421FDF793FBA36933F40052B9
:103DC80006D0B3F5804F03D03548C521FDF788FBF1
:103DD800E36933F0200206D0B3F5807F03D0304882
:103DE800C621FDF77DFB236A33F4403303D02C480A
:103DF800C721FDF775FB636A33F0040303D0284835
:103E0800C821FDF76DFB636AB3B1A36A032B03D91D
:103E18002348CD21FDF764FBE36A33F0C07303D078
:103E28001F48CE21FDF75CFB236B33F4C00303D09E
:103E38001B48CF21FDF754FB21681A4AA0680223CA
:103E480084F835300B681A4063681843E3681843F0
:103E58002369184363691843A3691843E36918433E
:103E6800236A03431343626A042A01BFE06A256B8D
:103E7800284303430B604B69042A23F0070343EAF2
:103E8800020304BFA26A13434B6100200123E064CC
:103E980084F8353038BD012038BD00BF10600240BD
:103EA800BC2302083F8010F0F8B51F4690F8343064
:103EB800012B04460E4615464FF0020038D0012368
:103EC80084F834307A1E4FF6FE739A4284F835002F
:103ED80004D918484FF4C771FDF702FB2168A3689D
:103EE800086820F0010008600868402B20F4802052
:103EF80008604F600BBF8D608E60CE60CD600B6830
:103F080043F010030B600B6843F008030B600B6869
:103F180043F004030B604B6943F080034B610B686B
:103F280043F002030B600B6843F001030B600020B1
:103F3800F8BD00BFBC23020870B50368A94DAB42A9
:103F4800044616D9A84A5168703293420AD01832EA
:103F5800934209D0183293420CBF4FF400224FF01D
:103F6800007203E0082201E04FF400720A424CD1CB
:103F7800BDE09E4A934217D9D2F8481302F556720B
:103F880093420AD01832934209D0183293420CBF98
:103F98004FF400224FF0007203E0082201E04FF4D2
:103FA80000720A4231D1BBE0914A9342A2F1580211
:103FB80015D95168703293420AD01832934209D009
:103FC800183293420CBF4FF400224FF0007203E006
:103FD800082201E04FF400720A4216D1B9E01168D4
:103FE800844A93420AD01832934209D01832934235
:103FF8000CBF4FF400224FF0007203E0082201E0EA
:104008004FF400720A4200F0BA801A6852076BD562
:104018001A68AB4222F004021A6013D9764A934216
:104028000AD01832934209D01832934214BF4FF085
:1040380000734FF4002303E0082301E04FF40073FA
:10404800694A2DE0694A934214D902F5567293429F
:104058000AD01832934209D01832934214BF4FF055
:1040680000734FF4002303E0082301E04FF40073CA
:104078005D4A2AE05E4A934214D9183293420AD024
:104088001832934209D01832934214BF4FF000738C
:104098004FF4002303E0082301E04FF40073574A6C
:1040A800D36013E0534A93420AD01832934209D09E
:1040B8001832934214BF4FF000734FF4002303E00B
:1040C800082301E04FF400734C4A9360E36C43F01B
:1040D8000103E364042384F83530002384F8343082
:1040E800A36C0BB1204698472368AB4215D93E4ACA
:1040F8005168703293420AD01832934209D018326C
:1041080093420CBF4FF480324FF4800202E03C4AE5
:1041180000E040220A4248D1FEE3344A934215D9CE
:10412800314A1168103293420AD01832934209D0AA
:10413800183293420CBF4FF480324FF4800202E0F1
:104148002F4A00E040220A422FD1E3E3284A934253
:1041580015D92A4A5168703293420AD018329342CC
:1041680009D0183293420CBF4FF480324FF48002CA
:1041780002E0234A00E040220A4216D1C8E31F4A5F
:104188001168103293420AD01832934209D018327B
:1041980093420CBF4FF480324FF4800202E0184A79
:1041A80000E040220A4200F0CA805A69160678D513
:1041B8005A69AB4222F080025A6123D90E4A9342CF
:1041C8000AD01832934209D0183293420CBF4FF4E8
:1041D80080334FF4800302E0094B00E04023024A99
:1041E8003CE000BF5864024000640240B8600240EE
:1041F8005860024010600240706402400060024053
:1042080001008000AB4A934213D902F556729342DB
:104218000AD01832934209D0183293420CBF4FF497
:1042280080334FF4800302E0A34B00E04023A34A0D
:1042380028E0A34A934213D9183293420AD018327D
:10424800934209D0183293420CBF4FF480334FF495
:10425800800302E0984B00E040239A4AD36012E0C2
:10426800994A93420AD01832934209D0183293429D
:104278000CBF4FF480334FF4800302E08E4B00E014
:104288004023904A9360E36C43F00203E364042301
:1042980084F83530002384F83430A36C0BB1204601
:1042A80098472368AB4216D9844A516870329342C2
:1042B8000AD01832934209D0183293420CBF4FF4F7
:1042C80080224FF0807203E0804A01E04FF4807250
:1042D8000A424CD126E3774A934216D9774A1168A5
:1042E800103293420AD01832934209D018329342BE
:1042F8000CBF4FF480224FF0807203E0734A01E054
:104308004FF480720A4232D10AE36D4A934217D9B8
:104318006C4A5168703293420AD01832934209D0DD
:10432800183293420CBF4FF480224FF0807203E0A2
:10433800664A01E04FF480720A4218D1EEE223681F
:10434800604A1168103293420AD01832934209D059
:10435800183293420CBF4FF480224FF0807203E072
:104368005A4A01E04FF480720A4200F0CD801A6880
:1043780090076BD51A68AB4222F002021A6013D973
:10438800534A93420AD01832934209D018329342C2
:104398000CBF4FF480234FF0807303E04B4B01E0D8
:1043A8004FF48073454A2DE0424A934214D902F5EE
:1043B800567293420AD01832934209D01832934267
:1043C8000CBF4FF480234FF0807303E03F4B01E0B4
:1043D8004FF48073394A2AE0394A934214D9183283
:1043E80093420AD01832934209D0183293420CBF34
:1043F8004FF480234FF0807303E0344B01E04FF417
:104408008073304AD36013E02F4A93420AD018329F
:10441800934209D0183293420CBF4FF480234FF0D7
:10442800807303E0294B01E04FF48073254A9360C1
:10443800E36C43F00403E364042384F83530002379
:1044480084F83430A36C0BB1204698472368AB42FC
:1044580016D91A4A5168703293420AD018329342D8
:1044680009D0183293420CBF4FF480124FF080628B
:1044780003E0102201E04FF480620A425CD157E267
:104488000C4A934226D90D4A1168103293420AD039
:104498001832934209D0183293420CBF4FF480125D
:1044A8004FF0806203E0102201E04FF480620A427C
:1044B80042D13BE2B8600240010080000064024043
:1044C8005860024000600240106002400400800012
:1044D80070640240AB4A934217D9AB4A51687032B4
:1044E80093420AD01832934209D0183293420CBF33
:1044F8004FF480124FF0806203E0102201E04FF485
:1045080080620A4218D10FE223689F4A116810326C
:1045180093420AD01832934209D0183293420CBF02
:104528004FF480124FF0806203E0102201E04FF454
:1045380080620A4200F09D801A68110740F1888065
:104548001A68520362D5AB4213D9904A93420AD0F3
:104558001832934209D0183293420CBF4FF480139B
:104568004FF0806303E0102301E04FF48063884A32
:104578002DE0884A934214D902F5567293420AD024
:104588001832934209D0183293420CBF4FF480136B
:104598004FF0806303E0102301E04FF480637C4A0E
:1045A8002AE0784A934214D9183293420AD0183232
:1045B800934209D0183293420CBF4FF480134FF046
:1045C800806303E0102301E04FF480636E4AD360F8
:1045D80013E0714A93420AD01832934209D0183234
:1045E80093420CBF4FF480134FF0806303E0102315
:1045F80001E04FF48063644A936023681A681603E5
:104608001FD51B6818031FD541231BE01A68D10565
:1046180003D41A6822F008021A60AB4240F2EB8019
:104628005A4A934200F0E2801832934200F0E08048
:10463800183293420CBF4FF480134FF08063544AF2
:10464800D360312384F83530236C0BB1204698476A
:104658002368AB4201D94E4A08E04E4A934201D939
:104668004B4A08E0474A934204D9474A5168703296
:1046780003E02368444A1168103293420AD0183282
:10468800934209D0183293420CBF4FF400124FF0F6
:10469800006203E0202201E04FF400620A4214BFE6
:1046A80001220022002A00F045811A68D20640F152
:1046B80041811A68560371D5AB4213D9334A9342E4
:1046C8000AD01832934209D0183293420CBF4FF4E3
:1046D80000134FF0006303E0202301E04FF4006370
:1046E8002B4A2DE02B4A934214D902F55672934275
:1046F8000AD01832934209D0183293420CBF4FF4B3
:1047080000134FF0006303E0202301E04FF400633F
:104718001F4A2AE01B4A934214D9183293420AD0FE
:104728001832934209D0183293420CBF4FF4001349
:104738004FF0006303E0202301E04FF40063124AC6
:10474800D36013E0144A93420AD01832934209D036
:10475800183293420CBF4FF400134FF0006303E08C
:10476800202301E04FF40063074A936023681A6826
:10477800100301D4636C32E01B68190340F1DA803E
:104788002CE000BF586002400060024070640240A4
:1047980000640240B8600240106002401A68D20506
:1047A80003D41A6822F010021A60AB426CD9624A2C
:1047B800934264D01832934263D0183293420CBFAC
:1047C8004FF400134FF000635C4AD360E36CE3647A
:1047D800112384F83530002384F83430E36B002B40
:1047E80000F0A8802046BDE870401847102326E74F
:1047F8004FF4806323E7524A934214D902F5567264
:1048080093420AD01832934209D0183293420CBF0F
:104818004FF480134FF0806303E0102301E04FF45E
:104828008063464A29E0474A934213D91832934293
:104838000AD01832934209D0183293420CBF4FF471
:1048480080134FF0806303E0102301E04FF480638E
:104858003D4AF5E63D4A93420AD01832934209D0C0
:10486800183293420CBF4FF480134FF0806303E07B
:10487800102301E04FF48063334A9360E1E620237C
:10488800A2E74FF400639FE72D4A934214D902F53B
:10489800567293420AD01832934209D01832934282
:1048A8000CBF4FF400134FF0006303E0202301E036
:1048B8004FF40063214A29E0224A934213D918325F
:1048C80093420AD01832934209D0183293420CBF4F
:1048D8004FF400134FF0006303E0202301E04FF48E
:1048E8000063194A71E7194A93420AD01832934271
:1048F80009D0183293420CBF4FF400134FF00063F5
:1049080003E0202301E04FF400630F4A93605DE762
:104918002368FDE42368E1E42368C5E42368DCE553
:104928002368B0E5236894E523689EE6236897E644
:10493800236890E670BD00BF7064024000640240C6
:10494800B8600240586002400060024010600240B7
:104958002DE9F843914B984204460D4623D003F5C0
:10496800806398421FD003F5806398421BD003F5FB
:104978008063984217D003F58063984213D003F5FB
:10498800806398420FD003F5806398420BD003F5FB
:104998008063984207D003F58063984203D080482B
:1049A800C521FCF79DFD2B881BB97D48C621FCF766
:1049B80097FD6B68032B17D9A3F11102012A13D9AC
:1049C800784923F400128A420ED001F580118B42F7
:1049D8000AD0A1F570218A4206D0734A934203D0C7
:1049E8006F48C721FCF77CFDAB68022B03D96C48E4
:1049F800C821FCF775FD002601232F68B3401F402E
:104A08009F4240F0C5806B6823F01003022B17D13A
:104A18002B690D2B05D90F2B03D06148D921FCF741
:104A28005FFDF20804EB820206F00701106A8900B4
:104A38000F238B4020EA03002B698B40034313624A
:104A48004FEA46094FF0030822686B6808FA09F82C
:104A58006FEA080808EA020103F0030223F01003D2
:104A680002FA09F2013B0A43012B226017D8EB68CE
:104A7800032B03D94A48EC21FCF732FDA36808EA66
:104A88000302EB6803FA09F31343A360636823EA9C
:104A980007026B68C3F30013B34013436360E36812
:104AA800696808EA0308AB6803FA09F348EA0303EC
:104AB800E360CB006CD53D4A536C43F480435364A8
:104AC80026F0030202F1804202F59C3206F0030E42
:104AD80090684FEA8E0E0F2303FA0EF320EA0300C4
:104AE8002E4B9C4222D003F580639C4220D003F5D4
:104AF80080639C421ED003F580639C421CD003F562
:104B080080639C421AD003F580639C4218D003F559
:104B180080639C4216D003F580639C4214D003F551
:104B280080639C420CBF082309230EE000230CE09D
:104B380001230AE0022308E0032306E0042304E03B
:104B4800052302E0062300E0072303FA0EF30343DC
:104B5800174893600368FA4311F4803F14BF3B433E
:104B6800134003604368880311484CBF3B4313401C
:104B78004360836811F4801F14BF3B431340836074
:104B8800C368890254BF02EA03071F43084BDF606A
:104B98000136102E7FF430AFBDE8F88300000240E4
:104BA8000B240208000011100000221000380240F7
:104BB800003C014070B5054616460C4621B9084828
:104BC8004FF4D671FCF78CFC012E05D9044840F24D
:104BD800AD11FCF785FC01E006B92404AC6170BD99
:104BE8000B24020838B504460D4621B9044840F2A2
:104BF800C311FCF775FC61696940616138BD00BF8C
:104C08000B24020810B50446FDF7ECFF4FF47A7345
:104C1800B0FBF3F0FEF7DEFB4FF0FF302146002239
:104C2800FEF782FB002010BD08B5094B1A6842F454
:104C380000721A601A6842F480621A600320FEF754
:104C480057FB0F20FFF7DEFFFCF786FD002008BDAD
:104C5800003C0240024A136801331360704700BFEA
:104C680098D40020014B1868704700BF98D40020E2
:104C780013B50190FFF7F6FF0446FFF7F3FF019B1A
:104C8800001B9842F9D302B010BD0000014B186810
:104C9800000C7047002004E037B501230093124D43
:104CA800124B01951868022414210322002300F0F6
:104CB80033FC8DE830000E4B1421186803220023C2
:104CC80000F02AFC0B4B00228DE818004FF4E1306D
:104CD8004FF47A71134600F0F3FB074803B0BDE8C0
:104CE80030400EF02DBF00BFB4DB002004000020D0
:104CF8000800002084DB00205B24020882B00190B9
:104D0800019B5A1E0192002BFAD102B07047000095
:104D18002DE9F84F4FF0C044112525804CF2503052
:104D2800FFF7ECFFCF232380594B0022C3211A80C1
:104D38004FF0300E1980ED21A3F800E021806421A6
:104D48001980122003211980188081201880E820FA
:104D5800208085201880102679201E801880CB207E
:104D68002080392018804FF02C093420A3F80090B7
:104D78001A80188002201880F7202080EA27202037
:104D880018802780C0271A801A80278022271F8032
:104D9800C1272780C5271D8027803D271F801880B1
:104DA800C7202080AA2018803620208088201880DC
:104DB8003A20208055201880B12020804FF0130A17
:104DC800B6201A800A27A3F800A04FF0A208208076
:104DD800F6201F80A3F80080208001201880A3F807
:104DE80000E04FF0F20EA4F800E04FF0260E1A8013
:104DF800A4F800E01880E02020804FF03F0C0F203E
:104E08004FF02F0E18804FF0530BA3F800C0A3F8F3
:104E180000E04FF00C0EA3F800E01E801F80A3F8FE
:104E280000B04FF0D50BA3F800B04FF0400BA3F83B
:104E380000B01F800827A3F800A019801F80E12771
:104E480019801A8027801A801A8005221E801980EE
:104E580018801A80A3F80090A3F80080A3F800C077
:104E68001A800E221A803722A3F800E01A803C220A
:104E78001A80188025804CF25030FFF73FFF292315
:104E880023804CF25030BDE8F84FFFF737BF00BF22
:104E9800000002600C4B07B5187059700B48FEF7FC
:104EA80023FA0128FAD14FF47A7300930748064A87
:104EB80070210223FEF7D4F810B105480EF040FE29
:104EC800002003B05DF804FB62DD0020F0DA00206A
:104ED800122502081A4B07B518701A48FEF704FA8B
:104EE80001280346F9D14FF47A7200921548144A02
:104EF8007021FEF7B5F838B113484FF48051FFF729
:104F080071FE12480EF01CFE0E48FEF7EDF901285E
:104F18000346F9D14FF47A7200920A480C4A70217C
:104F2800FEF710F938B108484FF48051FFF75AFEE0
:104F380006480EF005FE064B187803B05DF804FB32
:104F480062DD0020F0DA0020000C02401225020881
:104F580044DD002038B5204C054608212046FFF7DF
:104F680041FE0520FCF734F920460821FFF73AFEF8
:104F780029468020FFF78EFF0021A420FFF78AFF33
:104F8800A820FFF7A7FF154CA075A320FFF7A2FFE5
:104F9800E075A620FFF79EFF20768820FFF79AFF8E
:104FA80060768020FFF796FFA17DA0760C480EF072
:104FB80085FDE17D0B480EF081FD217E0A480EF04B
:104FC8007DFD617E09480EF079FDA17E08480EF04E
:104FD80075FD002038BD00BF0008024046DD0020F6
:104FE800682402087F24020896240208AD240208D7
:104FF800C424020830B585B00DF10105022420460D
:10500800FFF768FF0134E4B2072C05F8010FF6D169
:105018009DF80220114B5A70013A012A0AD9002240
:105028005A709A801A819A72DA72DA815A821A75DB
:105038005A7511E09DF8032002F00F019DF8042035
:1050480042EA01229A809DF8052002F00F019DF89E
:10505800062042EA01221A8105B030BD46DD002053
:1050680010B500214FF6FF73CAB2824212D20C4A21
:105078008A5C5340082203F001045B0824B183F4DE
:10508800204383F001039BB2013A12F0FF02F2D1F0
:105098000131E9E7180A40EA032080B210BD00BFD9
:1050A8009ED4002008B5074B1B68DA890132DA81E3
:1050B80000229A82044B03221A70FCF793F8034BE0
:1050C800186008BDB0D70020B4D70020A4D60020AF
:1050D80008B50C4B1B68198A9A8A013119820A494A
:1050E8000132097892B291429A8202BF00229A75DF
:1050F8009A82064B03221A70FCF774F8044B186066
:1051080008BD00BFB0D700209ED50020B4D700202E
:10511800A4D600202DE9F843AC4C2378022B254671
:1051280000F0C380032B00F0CC80012B40F0BA8143
:10513800A74BA8491E88A84B1F680B880020B342BC
:1051480008BF0023182202FB0372947D44B9013082
:1051580080B2B04204D10B80A04B1A60BDE8F8833E
:1051680001339BB2002CEAD00B809C4F93899C4E54
:105178003A6001339381137833705378737053888E
:105188001B12B3705388F37093881B123371938882
:1051980073715378102B1AD114796400E4B2B47186
:1051A80092F804E000214FEA4E0ECBB203F1070C4F
:1051B80071455FFA8CFC3ED090680833405ADBB2E8
:1051C8004FEA202806F80C800231F054EDE70F2B47
:1051D80034D19388C3F3071E4FEA4E041B07E4B289
:1051E8001EBF01340EF1010EE4B24FF0000818BFE3
:1051F8005FFA8EFEB4714FF0070CC1465FFA88F370
:10520800734518D2916831F8180006F80C0009F1B6
:105218000101CBB2A3420AD2714B63440012587009
:105228000CF1020C09F10203DBB25FFA8CFC08F105
:1052380001089946E2E70934E4B200E00824A01E18
:10524800C0B2FFF70DFF3319021203F8022C03F85E
:10525800010C4FF000085FFA88F3A3420AD2614BB1
:1052680016F8081008F803105F480EF027FC08F13C
:105278000108F0E75D485B490822FEF70BFA10B118
:105288005B480EF05DFC5B4B00221A70FBF7AAFF2F
:10529800594B186002232B703B681B78002B40F099
:1052A8000181BDE8F843FFF7FDBE544B4F4D002286
:1052B8001A702A68126812F0200F984640F0E480AD
:1052C8000DE0FBF78FFF4C4B1B68C01A4C4B1B883B
:1052D800984240F2E78001232370BDE8F883454BEC
:1052E8001A781E46002A00F0BC8098F80040434F08
:1052F8003B4D0B2C09D8434B4348195D29550EF0FB
:10530800DDFB3B7801333B70EFE700233370334B11
:105318001E6833782B70002B00F0C480A01E2C442C
:10532800C0B2FFF79DFE14F8022C14F8013C43EAC2
:105338000223984240F091806B78180603D5738A4F
:105348000133738289E0013BDBB20F2B00F28580C9
:10535800012202FA03F313F440426FD113F00C0F49
:1053680054D1990779D0B288AF78C2F307104300B7
:105378001207DBB21FBF01330130DBB2C0B29F425C
:105388006BD14FF0000E0324F4465FFA8EF383428C
:1053980087D20CF10102D3B2BB4238BF104A295D53
:1053A80037BF12198AB252780CF1020338BF41EAAA
:1053B8000222B1683CBFDBB2023421F81E2038BF9C
:1053C800E4B20EF1010E9C46DFE700BFB4D700201F
:1053D8009CD40020A8D60020A0D60020B0D700205A
:1053E8009ED40020ADD60020DB24020850DA00202D
:1053F800EF240208ACD60020A4D60020ADD70020A8
:10540800B6D700209FD5002018250208AB78B188B0
:10541800B3EB410F21D1D1B2B0884B00033388429E
:10542800DBB202F101027FF63CAFEC5CB0682B44C2
:105438005B7843EA042320F81130ECE7AC78EA788B
:10544800708829796B7942EA0422904205D1B288A2
:1054580043EA01239A423FF424AFBDE8F843FFF73B
:1054680037BE114DFBF7BEFE2B68C01A0F4B1B88C9
:10547800984217D9FBF7B6FE2968411A0C480EF076
:105488001DFBFFF725FE26E70A480EF059FB2846C4
:1054980009491422FEF740F920B10848BDE8F8434D
:1054A8000EF04EBBBDE8F883A4D600209ED600209F
:1054B8002B250208382502089FD50020042502085C
:1054C80030B5B0F5964F0C4D9ABF0C4CB4FBF0F0CC
:1054D80040F2EE2028800A4801240470094801801F
:1054E80009490A80094A1370094BBDF810201A802F
:1054F800084B039A1A6030BDAAD6002020C5FB00CD
:10550800B4D700209ED60020B6D700209ED5002014
:105518009CD40020A0D600204380BDF800308380B2
:10552800019B8360012301704270837570470000FE
:10553800014B01221A707047ACD60020014B0122A2
:105548001A707047ACD6002001480EF0B7BA00BFF9
:105558004825020837B50C46054660B109F0B4F98C
:10556800826B0190A24203D08463284603F012FEA6
:1055780001A809F0B7F93EBD37B50D46044660B13C
:1055880009F0A2F9024602A8A2F8485040F8042DF2
:1055980009F0A8F9204603F0FDFD3EBD37B50C46DD
:1055A800054600B309F090F9436C009068460193F2
:1055B80009F098F9214601A807F05EF8D0F1010436
:1055C80038BF002484B9284609F07EF9019A416C55
:1055D8000090914218BF4264684609F083F9284652
:1055E80003F0D8FD00E0012420463EBD37B50C4647
:1055F800054660B109F068F9426B0190A24203D0F8
:105608004463284603F0C6FD01A809F06BF93EBDC6
:10561800F0B587B0B0F90C70B0F90E60B0F9105061
:10562800B0F90AE0009102210191448A0294B0F98C
:1056380008100391446804948469F9180EEB020079
:10564800059432462B4600F065F807B0F0BD30B53A
:105658004568044685B02846214609F075FD0028AE
:1056680056D023680F2B1ED0B3F5107F0ED00B2B0E
:105678004BD1284609F028F904AD45F80C0D443003
:1056880009F074FB284609F02DF93EE0E06828B1DE
:10569800017A00290CBF0221012100E003212846DC
:1056A80002F0BBFE31E0284609F00EF90090806B4D
:1056B80006F07AFF009A506B07F012FD284602F0B8
:1056C8008DFC28B9009BD86B06F066FF08F0EAFC51
:1056D8000098416CA9B1022007F0F8FC02A803F079
:1056E80069F8009A506C09F0EFF8009B0190B3F943
:1056F800482093F8403002A908F07AF901A809F087
:10570800F1F8684609F0EEF802E0204604F06CF97A
:1057180005B030BDF0B587B00C9D109C00950D9D6F
:1057280045F0010501951D4D0295119D2035039504
:1057380003F0ECFD054668B30CB9002713E02046DA
:105748000EF08AFA013009F033FB07460028F4D03E
:1057580009F0BAF806AE214646F8040D0EF01EFA16
:10576800304609F0BFF8284609F0AEF806AE0F99A2
:105778000590002209F0E0FC56F8044D0E9B0848FD
:10578800A4F848300FC86764343484E80F00304602
:1057980009F0A8F8284607B0F0BD00BF5756000822
:1057A8000C000020F0B587B0B0F90C70B0F90E60AD
:1057B800B0F91050B0F90AE0009100210191448A33
:1057C8000294B0F9081003918469F9180EEB0200ED
:1057D800049432462B4600F003F807B0F0BD0000F1
:1057E8002DE9F04186B00C9C00940D9C44F0010416
:1057F80001941C4C0294109C3834039403F086FDE9
:10580800804658B309F060F80E9B174D0F99059024
:1058180013F0080F14BF1822102209F08DFC06AFF0
:105828000FCD57F8046D06F134040FC495E8030052
:1058380084E803000D4C206808216422F0640023EA
:105848004FF0FF30A6F8601072653065B3653846D2
:1058580009F048F8216840464A689047404606B033
:10586800BDE8F08157590008200000201C000020E6
:1058780010B586B0089C0094099C01940A9C029477
:105888000B9C039400240494FFF7AAFF06B010BDF4
:1058980037B50546C0B109F017F8C26D816D02AC85
:1058A8008A4244F8040D0CDD531EC365284603F0F4
:1058B80071FC204609F016F82846052102F0ADFDD6
:1058C80002E0204609F00EF83EBD37B50546C0B1E6
:1058D80008F0FAFFC26D416D02AC8A4244F8040D2B
:1058E8000CDA531CC365284603F054FC204608F024
:1058F800F9FF2846052102F090FD02E0204608F055
:10590800F1FF3EBD73B50E460546F8B108F0DCFF61
:10591800826D436D9642ACBF31461146C26D02ACF2
:105928009942A8BF19468A4244F8040D0BD0C165B4
:10593800284603F02FFC204608F0D4FF284605210E
:1059480002F06BFD02E0204608F0CCFF7CBD2DE99B
:10595800F74F446805462946204609F0F5FB00281C
:1059680000F0A4802B680F2B06D0B3F5107F14D05D
:105978000E2B40F0988086E0204608F0A5FF02A98B
:1059880041F8040DC56C2D68084608F0ABFF002DE2
:1059980000F08C802046A84788E0EF68002F00F0D0
:1059A8008280204608F090FF034602A89E6D40F8CA
:1059B800043DD3F85490B3F860B0B3F83280D3F80C
:1059C80028A008F08FFF3A7A002A48D00FFA8BFBFC
:1059D800022308F008009BFBF3F281B202F1010BED
:1059E80009B17F6800E03F68CBEB0707204609F064
:1059F80053FB002F12DDA0EB4B0297420DDA002A71
:105A080008BF01220223C6EB090992FBF3F009FB48
:105A18000707B7FBF2F18E1900E04E46204602F068
:105A2800C7FD10B1204602F077FB2046012102F0A5
:105A380047FC08F4807820463146FFF763FF1FFAD9
:105A480088F282BB20464FF480710AF0020A09F0FE
:105A58004AFB1FFA8AF333B32046012110E008F409
:105A680080781FFA88F0F0B14FF4807120460AF070
:105A7800020A09F04DFB1FFA8AF1A1B12046022162
:105A880002F0CBFC0FE0EA685168106800290ADDD3
:105A9800102805D0122806D12046FFF716FF02E08D
:105AA8002046FFF7F5FE284603F09EFFBDE8FE8F6F
:105AB80073B50C4616460546B0B108F005FFC16D32
:105AC8000190A642ACBF32462246A142B8BFC46587
