:020000040800F2
:10000000FFFF012049110008F9110008FB11000849
:10001000FD110008FF110008011200080000000097
:1000200000000000000000000000000003120008B3
:10003000051200080000000007120008091200085D
:1000400095110008951100089511000895110008F8
:1000500095110008951100089511000895110008E8
:1000600095110008951100089511000895110008D8
:1000700095110008951100089511000895110008C8
:1000800095110008951100089511000895110008B8
:1000900095110008951100089511000895110008A8
:1000A0009511000895110008951100089511000898
:1000B0009511000895110008951100089511000888
:1000C0009511000895110008951100089511000878
:1000D0009511000895110008751200089511000887
:1000E0009511000895110008951100089511000858
:1000F0009511000895110008951100089511000848
:100100009511000895110008951100089511000837
:100110009511000895110008951100089511000827
:100120009511000895110008951100089511000817
:100130009511000895110008951100089511000807
:1001400095110008951100089511000895110008F7
:1001500095110008951100089511000895110008E7
:1001600095110008951100089511000895110008D7
:100170009511000895110008951100080000000075
:0801800095110008951100081B
:10018800844641EA000313F003036DD1403A41D39A
:1001980051F8043B40F8043B51F8043B40F8043B59
:1001A80051F8043B40F8043B51F8043B40F8043B49
:1001B80051F8043B40F8043B51F8043B40F8043B39
:1001C80051F8043B40F8043B51F8043B40F8043B29
:1001D80051F8043B40F8043B51F8043B40F8043B19
:1001E80051F8043B40F8043B51F8043B40F8043B09
:1001F80051F8043B40F8043B51F8043B40F8043BF9
:1002080051F8043B40F8043B51F8043B40F8043BE8
:10021800403ABDD2303211D351F8043B40F8043B88
:1002280051F8043B40F8043B51F8043B40F8043BC8
:1002380051F8043B40F8043B103AEDD20C3205D398
:1002480051F8043B40F8043B043AF9D2043208D090
:10025800D2071CBF11F8013B00F8013B01D30B8802
:1002680003806046704700BF082A13D38B078DD0E0
:1002780010F003038AD0C3F10403D21ADB071CBFB2
:1002880011F8013B00F8013B80D331F8023B20F81C
:10029800023B7BE7043AD9D3013A11F8013B00F855
:1002A800013BF9D20B7803704B7843708B788370DD
:1002B8006046704781F0004102E000BF83F00043D0
:1002C80030B54FEA41044FEA430594EA050F08BFE9
:1002D80090EA020F1FBF54EA000C55EA020C7FEAAD
:1002E800645C7FEA655C00F0E2804FEA5454D4EB2A
:1002F8005555B8BF6D420CDD2C4480EA020281EAF4
:10030800030382EA000083EA010180EA020281EA2B
:100318000303362D88BF30BD11F0004F4FEA01317D
:100328004FF4801C4CEA113102D0404261EB41018C
:1003380013F0004F4FEA03334CEA133302D0524212
:1003480063EB430394EA050F00F0A780A4F10104CE
:10035800D5F1200E0DDB02FA0EFC22FA05F2801808
:1003680041F1000103FA0EF2801843FA05F35941EE
:100378000EE0A5F120050EF1200E012A03FA0EFC6D
:1003880028BF4CF0020C43FA05F3C01851EBE37197
:1003980001F0004507D54FF0000EDCF1000C7EEBB4
:1003A80000006EEB0101B1F5801F1BD3B1F5001FF2
:1003B8000CD349085FEA30004FEA3C0C04F1010411
:1003C8004FEA445212F5800F80F09A80BCF1004F3A
:1003D80008BF5FEA500C50F1000041EB045141EABC
:1003E800050130BD5FEA4C0C404141EB010111F4BD
:1003F800801FA4F10104E9D191F0000F04BF014668
:100408000020B1FA81F308BF2033A3F10B03B3F145
:1004180020020CDA0C3208DD02F1140CC2F10C02D5
:1004280001FA0CF021FA02F10CE002F11402D8BF33
:10043800C2F1200C01FA02F120FA0CFCDCBF41EAFF
:100448000C019040E41AA2BF01EB0451294330BDCE
:100458006FEA04041F3C1CDA0C340EDC04F11404AB
:10046800C4F1200220FA04F001FA02F340EA030082
:1004780021FA04F345EA030130BDC4F10C04C4F1C8
:10048800200220FA02F001FA04F340EA03002946A8
:1004980030BD21FA04F0294630BD94F0000F83F4F2
:1004A800801306BF81F480110134013D4EE77FEAD5
:1004B800645C18BF7FEA655C29D094EA050F08BF21
:1004C80090EA020F05D054EA000C04BF1946104602
:1004D80030BD91EA030F1EBF0021002030BD5FEA46
:1004E800545C05D14000494128BF41F0004130BD6E
:1004F80014F580043CBF01F5801130BD01F00045C2
:1005080045F0FE4141F470014FF0000030BD7FEA34
:10051800645C1ABF194610467FEA655C1CBF0B462F
:10052800024650EA013406BF52EA033591EA030F46
:1005380041F4002130BD00BF90F0000F04BF00213E
:10054800704730B54FF4806404F132044FF0000571
:100558004FF0000150E700BF90F0000F04BF0021EA
:10056800704730B54FF4806404F1320410F0004550
:1005780048BF40424FF000013EE700BF42004FEA4B
:10058800E2014FEA31014FEA02701FBF12F07F43C8
:1005980093F07F4F81F06051704792F0000F14BFC5
:1005A80093F07F4F704730B54FF4607401F0004509
:1005B80021F0004120E700BF50EA010208BF704760
:1005C80030B54FF000050AE050EA010208BF704755
:1005D80030B511F0004502D5404261EB41014FF4BE
:1005E800806404F132045FEA915C3FF4DCAE4FF0C2
:1005F80003025FEADC0C18BF03325FEADC0C18BFA9
:10060800033202EBDC02C2F1200300FA03FC20FAF9
:1006180002F001FA03FE40EA0E0021FA02F1144446
:10062800C1E600BF70B54FF0FF0C4CF4E06C1CEA5B
:1006380011541DBF1CEA135594EA0C0F95EA0C0FD0
:1006480000F0DEF82C4481EA030621EA4C5123EA43
:100658004C5350EA013518BF52EA033541F4801172
:1006680043F4801338D0A0FB02CE4FF00005E1FB25
:1006780002E506F00042E0FB03E54FF00006E1FB6F
:1006880003569CF0000F18BF4EF0010EA4F1FF04B2
:10069800B6F5007F64F5407404D25FEA4E0E6D41F2
:1006A80046EB060642EAC62141EA55514FEAC52003
:1006B80040EA5E504FEACE2EB4F1FD0C88BFBCF57F
:1006C800E06F1ED8BEF1004F08BF5FEA500E50F130
:1006D800000041EB045170BD06F0004646EA0101F6
:1006E80040EA020081EA0301B4EB5C04C2BFD4EB28
:1006F8000C0541EA045170BD41F480114FF0000E21
:10070800013C00F3AB8014F1360FDEBF002001F08E
:10071800004170BDC4F10004203C35DA0C341BDC08
:1007280004F11404C4F1200500FA05F320FA04F0DA
:1007380001FA05F240EA020001F0004221F000410E
:1007480010EBD37021FA04F642EB06015EEA430E81
:1007580008BF20EAD37070BDC4F10C04C4F12005B1
:1007680000FA04F320FA05F001FA04F240EA020064
:1007780001F0004110EBD37041F100015EEA430E35
:1007880008BF20EAD37070BDC4F1200500FA05F255
:100798004EEA020E20FA04F301FA05F243EA0203D4
:1007A80021FA04F001F0004121FA04F220EA0200E3
:1007B80000EBD3705EEA430E08BF20EAD37070BD29
:1007C80094F0000F0FD101F00046400041EB010109
:1007D80011F4801F08BF013CF7D041EA060195F0EB
:1007E800000F18BF704703F00046520043EB0303A5
:1007F80013F4801F08BF013DF7D043EA0603704792
:1008080094EA0C0F0CEA135518BF95EA0C0F0CD09C
:1008180050EA410618BF52EA4306D1D181EA0301E2
:1008280001F000414FF0000070BD50EA410606BFDC
:100838001046194652EA430619D094EA0C0F02D121
:1008480050EA013613D195EA0C0F05D152EA033666
:100858001CBF104619460AD181EA030101F0004184
:1008680041F0FE4141F470014FF0000070BD41F0CD
:10087800FE4141F4780170BD70B54FF0FF0C4CF4A7
:10088800E06C1CEA11541DBF1CEA135594EA0C0FC6
:1008980095EA0C0F00F0A7F8A4EB050481EA030E13
:1008A80052EA03354FEA013100F088804FEA0333FA
:1008B8004FF0805545EA131343EA12634FEA0222C8
:1008C80045EA111545EA10654FEA00260EF0004189
:1008D8009D4208BF964244F1FD0404F5407402D2DB
:1008E8005B084FEA3202B61A65EB03055B084FEA6C
:1008F80032024FF480104FF4002CB6EB020E75EB69
:10090800030E22BFB61A754640EA0C005B084FEA90
:100918003202B6EB020E75EB030E22BFB61A75460D
:1009280040EA5C005B084FEA3202B6EB020E75EB58
:10093800030E22BFB61A754640EA9C005B084FEAD0
:100948003202B6EB020E75EB030E22BFB61A7546DD
:1009580040EADC0055EA060E18D04FEA051545EACC
:1009680016754FEA06164FEAC30343EA52734FEA75
:10097800C2025FEA1C1CC0D111F4801F0BD141EAEE
:1009880000014FF000004FF0004CB6E711F4801F53
:1009980004BF01430020B4F1FD0C88BFBCF5E06F33
:1009A8003FF6AFAEB5EB030C04BFB6EB020C5FEA43
:1009B800500C50F1000041EB045170BD0EF0004E98
:1009C8004EEA113114EB5C04C2BFD4EB0C0541EACA
:1009D800045170BD41F480114FF0000E013C90E6C7
:1009E80045EA060E8DE60CEA135594EA0C0F08BF8B
:1009F80095EA0C0F3FF43BAF94EA0C0F0AD150EA8A
:100A080001347FF434AF95EA0C0F7FF425AF10461C
:100A180019462CE795EA0C0F06D152EA03353FF444
:100A2800FDAE1046194622E750EA410618BF52EAC1
:100A380043067FF4C5AE50EA41047FF40DAF52EA95
:100A480043057FF4EBAE12E74FF0FF3C06E000BF32
:100A58004FF0010C02E000BF4FF0010C4DF804CD3F
:100A68004FEA410C7FEA6C5C4FEA430C18BF7FEAFF
:100A78006C5C1BD001B050EA410C0CBF52EA430C2D
:100A880091EA030F02BF90EA020F0020704710F1AD
:100A9800000F91EA030F58BF994208BF90422CBF3C
:100AA800D8176FEAE37040F0010070474FEA410C35
:100AB8007FEA6C5C02D150EA013C07D14FEA430C53
:100AC8007FEA6C5CD6D152EA033CD3D05DF8040BC4
:100AD800704700BF8446104662468C4619466346F6
:100AE80000E000BF01B5FFF7B7FF002848BF10F1CD
:100AF800000F01BD4DF808EDFFF7F4FF0CBF012012
:100B080000205DF808FB00BF4DF808EDFFF7EAFF8D
:100B180034BF012000205DF808FB00BF4DF808ED48
:100B2800FFF7E0FF94BF012000205DF808FB00BF3D
:100B38004DF808EDFFF7CEFF94BF012000205DF8C7
:100B480008FB00BF4DF808EDFFF7C4FF34BF0120D4
:100B580000205DF808FB00BF4FEA410212F50012C1
:100B680015D211D56FF47873B3EB625212D94FEAEC
:100B7800C12343F0004343EA505311F0004F23FAD6
:100B880002F018BF404270474FF00000704750EA2B
:100B9800013005D111F0004008BF6FF000407047E8
:100BA8004FF00000704700BF4BB942B9002908BF99
:100BB800002802D04FF0FF31084600F03BB882B061
:100BC800EC462DE9005000F01DF8DDF804E002B015
:100BD8000CBC70472DE9F041069C154606460F46A9
:100BE800984600F029F805FB01F300FB0838A5FB3F
:100BF8000023B21A434467EB0303C4E90023BDE8AA
:100C0800F08100BF2DE9F041069C904606460F464C
:100C18001D4600F05FF900FB05F5A0FB082308FB63
:100C28000155B21A2B4467EB0303C4E90023BDE85E
:100C3800F08100BF704700BF00292DE9F043C0F2E2
:100C4800A6800026002BC0F29C80884694469E46CB
:100C5800154604460F46002B3DD18A4259D9B2FAAF
:100C680082F33BB1C3F120029F4020FA02F29D407B
:100C780017439C40290C220CB7FBF1FEA8B201FBDC
:100C88001E7742EA074700FB0EF3BB420AD97F19D9
:100C98000EF1FF3280F00581BB4240F20281AEF1D5
:100CA800020E2F44FF1AA4B2B7FBF1F301FB13772E
:100CB80044EA074700FB03F0B84208D97F1903F15B
:100CC800FF3280F0F080B84240F2ED80023B43EA08
:100CD8000E43002203E08B420FD900221346341C36
:100CE80018BF012460424FF0000565EB45015840EC
:100CF800514000196941BDE8F083B3FA83F2002A34
:100D080040F086808B4202D3844500F2DB800123C9
:100D1800E5E712B90123B3FBF2F5B5FA85F000282F
:100D28003BD1781B4FEA154E1FFA85FC0122B0FB18
:100D3800FEF8210C0EFB180741EA07470CFB08F3E5
:100D4800BB4207D97F1908F1FF3102D2BB4200F23A
:100D5800BD808846FF1AA4B2B7FBFEF30EFB1377DB
:100D680044EA07470CFB03FCBC4507D97F1903F18C
:100D7800FF3102D2BC4500F2A7800B4643EA084384
:100D8800ADE752426FEA060663EB43035DE7404274
:100D980061EB41014FF0FF3654E7C0F1200224FA1D
:100DA80002F107FA00F385404FEA154ED740194380
:100DB800B7FBFEF20B0C0EFB12771FFA85FC43EA19
:100DC80007430CFB02F79F4204FA00F407D95B19AA
:100DD80002F1FF3074D29F4272D9023A2B44DF1BD2
:100DE80089B2B7FBFEF80EFB187341EA03430CFB0C
:100DF80008F79F4208D95B1908F1FF315CD29F427E
:100E08005AD9A8F102082B44D81B48EA02428EE7B7
:100E1800C2F120032CFA03F10EFA02FE20FA03F7BE
:100E280041EA0E0E08FA02F028FA03F14FEA1E45CD
:100E38003843B1FBF5F8030C05FB18111FFA8EF7C0
:100E480043EA014107FB08F38B420CFA02FC09D97B
:100E580011EB0E0108F1FF3930D28B422ED9A8F1DF
:100E680002087144C91A80B2B1FBF5F305FB1311EE
:100E780040EA014107FB03F78F4208D911EB0E0145
:100E880003F1FF3016D28F4214D9023B714443EA72
:100E98000843C91BA3FB0C89494509D305D0002287
:100EA8001DE79646FEE6134611E794404445F6D200
:100EB800013BF4E70346EAE78846A5E7C846D1E7D9
:100EC80002468CE713460AE7023B57E7A8F10208F7
:100ED8002F443FE72DE9F041002B44D18A421546C3
:100EE80004464FD9B2FA82F70E464FB1C7F1200334
:100EF800B94020FA03F602FA07F50E4300FA07F4A0
:100F08004FEA154E230CB6FBFEF0AFB20EFB106194
:100F180043EA014307FB00F1994209D95B1900F143
:100F2800FF3280F0EC80994240F2E98002382B448D
:100F38005A1AA4B2B2FBFEF30EFB132244EA024291
:100F480007FB03F7974208D9521903F1FF3180F0E4
:100F5800D880974240F2D580023B43EA0040002601
:100F68003146BDE8F0818B4247D8B3FA83F6002EAC
:100F780048D18B4202D3824200F2CD800120314613
:100F8800BDE8F08112B90125B5FBF2F5B5FA85F88F
:100F9800B8F1000F77D14A1B4FEA154EAFB20126C0
:100FA800B2FBFEF0230C0EFB102143EA014107FBC4
:100FB80000F38B4207D9491900F1FF3202D28B4264
:100FC80000F2BA801046C91AA4B2B1FBFEF30EFBB8
:100FD800131144EA014407FB03F7A74208D964192F
:100FE80003F1FF3280F08F80A74240F28C80023BF1
:100FF80043EA00403146BDE8F081002630463146DC
:10100800BDE8F081C6F1200422FA04F5B3402B4371
:1010180020FA04FC01FA06F721FA04F54FEA134E08
:101028004CEA0707B5FBFEF8390C0EFB18551FFAFA
:1010380083FC41EA05450CFB08F1A94202FA06F2D5
:1010480004D9ED1808F1FF3467D3A0466D1ABFB272
:10105800B5FBFEF40EFB145547EA05410CFB04FCF6
:101068008C4504D9C91804F1FF355CD32C4644EAF1
:101078000844CCEB0101A4FB0223994248D344D095
:10108800204600266CE7C8F1200401FA08F305FAA7
:1010980008F520FA04F7E1404FEA154E1F43B1FB6B
:1010A800FEF63A0C0EFB16111FFA85FC42EA0143C4
:1010B8000CFB06F29A4200FA08F407D95B1906F10C
:1010C800FF3137D29A4235D9023E2B449B1ABFB220
:1010D800B3FBFEF00EFB103347EA03430CFB00F1B1
:1010E800994207D95B1900F1FF3221D299421FD9E1
:1010F80002382B445A1A40EA0646674650E710461B
:1011080016E70B4629E7134672E7B0409042B7D27C
:10111800601E002624E7304622E7A94295D9A8F1A7
:1011280002081D4492E78C45A0D9023C19449EE769
:101138001046DFE70E46C9E70238294443E700BFF7
:10114800DFF830D0002103E00B4B5B5843500431EB
:101158000A480B4B42189A42F6D30A4A02E0002387
:1011680042F8043B084B9A42F9D300F011F800F01A
:10117800CBF87047FFFF01206CD802080000002060
:101188007C0B00207CD3002080E70020FEE70000D5
:101198000C4B1A68002142F001021A6099601A6823
:1011A80022F0847222F480321A60074A5A601A6860
:1011B80022F480221A60D960044B4FF000629A60D2
:1011C800704700BF003802401030002400ED00E0F6
:1011D800034B1A6810441A688242FCD3704700BF58
:1011E80084D30020014B1868704700BF7CD30020CF
:1011F8007047FEE7FEE7FEE7FEE770477047704777
:1012080008B502F027FE134A136801331360124B26
:101218001A6801321A6018680A22B0FBF2F102FB60
:10122800110212B90D4A0121117019684FF4FA73AD
:10123800B1FBF3F203FB121313B9094B01221A7025
:10124800084B1A6801321A601B68074B01221A7092
:1012580008BD00BF7CD3002084D3002088D30020A1
:101268008AD3002080D3002089D30020014802F0CF
:1012780021BA00BFBCE2002008B504484FF4005171
:1012880002F0B0FD024811F091FDF6E7000C0240B3
:1012980000880108084A136843F027031360074BC6
:1012A8001B68DA0706D5064B1B68DB0742BF054BF0
:1012B80001221A60704700BF042004E0F0ED00E04E
:1012C800000E00E08CD30020064B1B684BB1064B88
:1012D8001B68DB0105D54FF060431A68002AFAD075
:1012E800187070478CD30020FCED00E0054B1B689C
:1012F80010B533B1441E14F8010F10B1FFF7E4FF25
:10130800F9E710BD8CD3002000B593B002F08CFD36
:10131800624A136C43F080531364A2F5E43202244A
:10132800136843F4404313600123069307934FF473
:1013380080030D9308230E934FF4A8730F9306A808
:1013480007230C941094119301F058F808B1FFF793
:1013580093FF0F2301934FF4A0530390049301A824
:101368004FF4805305210294059301F049FA0028AF
:10137800EDD102F08BFD41F20103984201BF484ACA
:10138800136843F480731360FFF784FF4548FFF741
:10139800ADFF4548454901240223102281E8180081
:1013A800426105234FF480528B60826200230A4613
:1013B800CC600C614C618B618360C36003618361A5
:1013C800C36103624362C36203634363836302F0DE
:1013D80099FB0028BBD1364B364A1A604FF480423D
:1013E8001A61354A5A60402258619860DA61186279
:1013F800FE221846DA609A6101F00EFD0028A6D197
:101408002E4B2F4998604FF4E13283E80600D860EC
:10141800186198610C22D86118465A6102F068F880
:10142800002894D102F038FD1C4A2648136B43F07B
:10143800080313634FF44053069306A90323099343
:101448000794089402F084FB00F000FFA04202D049
:101458001D4811F069FC00F0BDFC012802D01B48B2
:1014680011F062FC1A4C23781BB102F069FF0023CB
:101478002370184C23783BB1174B186806F0C0FF4F
:101488000BF090F900232370144C2378002BE9D03B
:1014980000F0F4FE00232370E4E700BF00380240A8
:1014A800003C02401888010818E30020FCE20020F4
:1014B8005CE3002000540040801A0600BCE20020D3
:1014C80000440040000C02402588010839880108C2
:1014D8008AD3002088D30020B0E3002089D30020DD
:1014E80010B50446C0B2FFF7EFFE204610BD4FF01E
:1014F800FF30704708B503460A460248194611F0FE
:1015080013FCFEE754880108164B1A6B42F00102DF
:1015180070B51A631A6B144D42F001021A631A6C03
:1015280086B042F400321A64042301930024022393
:101538000726284601A9029304930394059602F00E
:1015480007FB0823284601A90193059602F000FB32
:1015580021460122262001F08FFE262001F0CEFE32
:1015680006B070BD00380240000002402DE9F0438B
:10157800264C274E236B43F002032363236B43F06F
:1015880002032363236B87B04FF0040943F004037D
:101598002363012512234FF04008022730460DEB44
:1015A80009010293CDF8048004970395CDF81490AF
:1015B80002F0CEFA2A463046414602F0FBFB4FF4D1
:1015C800007830460DEB0901CDF80480CDF8149071
:1015D80002F0BEFA2A463046414602F0EBFB049779
:1015E8000C4F0295082638460DEB09010196039524
:1015F80002F0AEFA384631462A4602F0DBFB236C8D
:1016080043F40013236407B0BDE8F08300380240B8
:101618000004024000080240204B21489A6B42F027
:101628000102F0B59A631A6B42F008021A631A6B4A
:1016380042F010021A631A6B87B042F002021A6372
:1016480002244CF6B373032700260C2501A9019345
:10165800039605950294049702F07AFA039606F128
:1016680080464FF6807301A906F501360D480193AF
:10167800059502940125049702F06AFA304601A9FB
:10168800019402950494039502F062FA30462146CB
:101698002A4602F08FFB07B0F0BD00BF00380240B9
:1016A800000C02400010024070474FF0FF307047B6
:1016B8004FF400534B60002070470000022881BFA0
:1016C800034B092200201A6098BF0120704700BF11
:1016D8007CE700200020704770B50E46144640B9DC
:1016E8000D46AB1BA3420ADAFFF701FF05F8010B11
:1016F800F7E7044B09221A604FF0FF3070BD24EA67
:10170800E47070BD7CE700200138012870B50E46F2
:1017180014460AD80D46AB1BA34204DA15F8010B90
:10172800FFF7DEFEF7E7204670BD034B09221A607B
:101738004FF0FF3070BD00BF7CE7002008B50D4BAF
:101748001A680AB90C4A1A601B68EFF30882184431
:1017580090420AD9094919220220FFF7D5FF084B00
:101768000C221A604FF0FF3008BD024A106018467C
:1017780008BD00BF90D3002080E7002086880108BC
:101788007CE7002003680F2B10B539D11E4B1F4C86
:101798001978022901D11E4814E023685A1C2260D6
:1017A800032B12D8DFE803F00204060C194802E004
:1017B800194800E0194802210A460BF019FA06E018
:1017C800174802210A460BF013FA00232360154B31
:1017D8001B78012B03D0022B01D1134800E01348DA
:1017E8000AF0E2FD00203E22014613460CF046FCBA
:1017F80001203D2201461346BDE810400CF03EBCD6
:10180800BDE8104007F026BAA0E3002094D30020DA
:1018180094A7010844A7010858A701086CA7010864
:1018280080A70108C8E30020FF80800000A0DF0037
:10183800094B13B5186840F6090106F0C1F8074BC3
:1018480007491A680446684611F0B8FA20466946FE
:1018580002F0DAFF02B010BDC4E30020B8E30020B4
:10186800A088010838B50368262B044600F02A81B1
:10187800B3F5107F00F070811D2B40F06981456839
:10188800B649284604F03CFB28460E2104F0F8FD32
:101898002846002104F066FB40F60801606806F05F
:1018A8008FF8AF49054602F0AFFF2846AD4902F070
:1018B800D3FF28460C2102F095FF2846AA4902F0DA
:1018C8007FFF40F60901606806F07AF8A7490546E7
:1018D80002F0C2FF2846A64902F096FF28460E21CC
:1018E80002F080FF41F60901606806F069F8A14935
:1018F800054602F089FF28469F4902F0ADFF2846B9
:101908000C2102F06FFF28469C4902F059FF40F66F
:101918000C01606806F054F80221054602F062FFE7
:101928002846974902F070FF2846964902F094FF2E
:1019380040F60D01606806F043F893490546002219
:1019480003F017FA28460122904903F012FA2846B4
:101958008F4903F033FA284602228E4903F009FA28
:101968004FF40161606806F02BF8874905460022AC
:1019780003F0FFF928460122874903F0FAF92846BF
:10198800834903F01BFA28468449022203F0F1F93F
:10199800032228467F4903F0ECF940F612016068FB
:1019A80006F00EF87E49054602F02EFF28467D49CE
:1019B80002F052FF4FF42A61606806F001F87A4994
:1019C800054602F021FF2846764902F045FF40F619
:1019D800A121606805F0F4FF7449054602F014FF80
:1019E8002846704902F038FF40F61F01606805F08C
:1019F800E7FF6F49054605F039FB2846644905F0BD
:101A08005DFB4FF40261606805F0DAFF694905463D
:101A180002F0FAFE2846684902F01EFF40F621014E
:101A2800606805F0CDFF6549054604F0D2FE2846FA
:101A3800574904F00DFF2846012104F0ECFE604BE5
:101A48006068012240F624011A7005F0B9FF5A496E
:101A5800054602F001FF28465A4902F0D5FE40F635
:101A68002601606805F0ACFF5749054602F0CCFE38
:101A78002846444902F0F0FE40F62801606805F067
:101A88009FFF5249054602F0BFFE28464A4902F028
:101A9800E3FE40F60E01606805F092FF1E22002169
:101AA800054603F03BF94A4B19682846C1F15F0126
:101AB80003F05EF8606840F6080105F081FF454BC9
:101AC80018602DE0806805F03AFF40F60E0290425B
:101AD8000146E36817D004DC40F60D02904208D0B6
:101AE80038BDB0F5016F1FD040F61F02904225D0D7
:101AF80038BD052B30D1606805F062FF03F021FB8B
:101B08002F4B987038BD052B26D1606805F058FF1B
:101B180003F021F92E4BC0F15F001860284B586084
:101B2800BDE83840FFF784BE052B15D1606805F085
:101B380047FF03F006FB224B587038BD022B0BD130
:101B4800254B186800F09CF8244B01221A7038BD08
:101B5800BDE8384007F07EB838BD00BF704B0208BA
:101B6800A4880108942B0208528D25004C6C0208A9
:101B7800A7880108AA8801085039020852258D0053
:101B8800AD880108A89C0208B1880108B688010838
:101B9800D0A90208B9880108BD880108C4880108CD
:101BA800CB8801081C410208CE880108D0880108AA
:101BB80081890108AF890108688D0208D388010866
:101BC800A4E30020E2880108E6880108A989010841
:101BD800B8E3002098D30020E4E300209CD3002041
:101BE80030B5134885B004F075F9124805F0F6F8D9
:101BF80005F0EAFE002503460095019511210E4ADD
:101C08000E4804F097FD06233F2201930C4B0090E9
:101C180004460293682113460395722006F0ACFC33
:101C2800084B1860204605F008FE204605B030BD78
:101C38000D5A0008C56A00086D180008B489010823
:101C48008D170008B0E3002005F05CB908B50368FB
:101C58000F2B0DD16FF07F400AF0A6FB06480AF063
:101C680075FB064805212822BDE808400BF080B91D
:101C7800BDE8084006F0EEBF0C7C0208A8D300209F
:101C88000C4B10B50446186805F0D7FD0A4B1868C8
:101C980005F0D3FD094B186805F0CFFD084B18680F
:101CA80005F0CBFD204605F092FABDE810400AF099
:101CB80079BD00BFC4E30020E4E30020D0E30020A6
:101CC800E0E3002003680F2B37B504462AD0262B03
:101CD80033D1806805F033FE40F611029042E36884
:101CE80004D040F6120290420CD028E0022B26D1F4
:101CF800144B1868FFF7C4FF134B0021186803F052
:101D0800D1FC0BE0022B1AD10F4B1D680024214691
:101D18002846013403F0C6FC652CF8D10B4B012290
:101D28001A700CE001A90422406805F03AFA0198FB
:101D38000AF038FB0BF0ECFA01E006F08BFF03B079
:101D480030BD00BFE4E30020E4D300209CD3002092
:101D580003680F2B13B5044624D0262B2DD1806899
:101D680005F0EDFD40F60B029042E36804D040F622
:101D78000E0290420CD022E0124A0124022B147069
:101D88001DD1114B1868FFF77BFF104B1C7016E034
:101D9800022B14D10E4B1868FFF772FF0B4B012270
:101DA8001A700CE001A90422406805F0FAF90198BC
:101DB8000AF0F8FA0BF0ACFA01E006F04BFF02B0BB
:101DC80010BD00BFF0D30020D0E300209CD300203A
:101DD800C4E300202DE9F04F4FF47F0087B00AF0EC
:101DE800E1FA0BF095FA6FF07F400AF0DDFADFF8C0
:101DF800A483D448DFF8A093D34FD44EDFF89CB324
:101E0800DFF89CA30AF0A2FAA0210522D0480BF023
:101E18008DF840460AF09AFA28220521CD480BF0A1
:101E28009FF80AF0BFFC002005F010FB0AF0BAFC8E
:101E380000200AF0B7FA6FF0704005F007FB05F0D4
:101E4800C3FD494605F08EFB00240625C24B3860C9
:101E5800214601930294009520464FF4A072F02386
:101E680006F03AFCCDF804B03060029421460095A3
:101E780020464FF4A072F02306F02EFC21464FF4C2
:101E8800A072F023CAF800008DE8200802942046CA
:101E980006F022FCDFF80CC3CDF814C0CCF8000023
:101EA8003068DFF804B3FFF7EBFE05F08DFD494617
:101EB80005F058FB33683860009340F60B03962210
:101EC8000193214632230295204604F0B8FFDFF83B
:101ED800DC92A24FC9F80000414605F0EFF8D9F8A6
:101EE80000009F4905F0C2F8D9F80000012105F06B
:101EF800F6F8D9F80000394604F05CFF336800931F
:101F080040F60C03962201930295322320463C2189
:101F180004F095FF4146CBF8000005F0CFF8DBF858
:101F28000000904905F0A2F8DBF80000012105F057
:101F3800D6F8DBF80000DFF878B2394604F03AFF4B
:101F48003368009340F60D039622019302953223DD
:101F58002046782104F073FF4146CBF8000005F0D5
:101F6800ADF8DBF80000804905F080F8DBF80000E8
:101F7800012105F0B4F8DBF80000DFF838B2394683
:101F880004F018FF3368009340F60E03962201937D
:101F9800214602953223A02004F051FF734B41469D
:101FA800186005F08BF8714B7149186805F05EF8F8
:101FB8006E4B0121186805F092F86C4B3946186889
:101FC80004F0F8FE3368009340F60F03962201935D
:101FD800029532233C21A02004F031FF4146CBF882
:101FE800000005F06BF8DBF80000624905F03EF8E8
:101FF800DBF80000012105F072F8DBF80000DFF8DB
:10200800B8B1394604F0D6FE336800934FF4016343
:1020180096220193029532237821A02004F00FFF25
:102028004146CBF8000005F049F8DBF800005249BA
:10203800DFF8888105F01AF8DBF80000012105F0C7
:102048004EF8DBF80000DFF878B1394604F0B2FE4C
:10205800DAF800300093322140F611034FF4A072F1
:10206800019302950B46204604F0E9FE4349CBF85C
:10207800000005F023F8DBF80000414904F0F6FF02
:10208800DBF80000012105F02AF8DAF800300093A7
:1020980040F612034FF4A0720193029532232046B2
:1020A8006E2104F0CCFE3549C8F8000005F006F8AA
:1020B800D8F80000334904F0D9FFD8F8000001210E
:1020C80005F00DF8D8F80000394604F073FEDAF888
:1020D80000300093C82140F614030A460193029584
:1020E8001923142003F0B4F9274B2849186003F08A
:1020F8009BF9DDF814C0264FDCF80030009332213C
:1021080040F613034FF4A072019302950B46204644
:1021180004F095FE1949386004F0D0FF3868184972
:1021280004F0A4FF3868012104F0D9FF3368029451
:102138008DE8280040F6150396220393B421232343
:1021480014203FE00C7C0208ECD30020E4E30020DC
:10215800908B0108AB8B0108591D0008C56A00085F
:10216800C08B0108CA8B0108D48B0108D4D3002086
:10217800E28B0108EC8B0108F58B0108688D0208D9
:10218800008C0108058C0108E4D30020695100087F
:10219800E0D30020704B0208551C0008CD1C000835
:1021A800D0E30020E0E30020E8D30020A4D30020FF
:1021B800D0D30020F4D30020F8D30020DCD30020B3
:1021C800D8D3002002F08AFC174C184B18600AF08C
:1021D800E9FA2146D9F8000005F0C4F9144B186053
:1021E800144B2146186805F0BDF9134B21461860B9
:1021F800DBF8000005F0B6F9104B21461860D8F856
:10220800000005F0AFF90E4B21461860386805F05C
:10221800A9F90C4B1860FFF7E3FC0B4B1860012081
:1022280007B0BDE8F08F00BF511C0008A0D3002004
:10223800DCE30020D4D30020E8E30020D8E300202A
:10224800ECE30020D4E30020C4E3002008B501211A
:102258004FF4805000F0A4F801F070FE022001F065
:1022680007FE002001F08CFF052001F001FE0BF0B5
:102278008DF8B0FA80F0400908BD00001FB501F0E4
:10228800CFFF0E4B9A88C2F1F00202921A895B784E
:10229800019203B101238DF80C30094B9DF80C20F5
:1022A8001978914206D01A7001A800238DF80D30D4
:1022B8000AF02EF805B05DF804FB00BFE2E5002047
:1022C800FCD300204FF0C04318807047014B1880A2
:1022D800704700BF0000026000EB4101884204D053
:1022E800024B30F8022B1A80F8E7704700000260B2
:1022F80000EB4101884204D0024B1B8820F8023BC6
:10230800F8E770470000026010B5A0B001A80021EE
:10231800142210F0BBFC06A80021682210F0B6FCBD
:1023280000221346134914480AF054FFF0210446CA
:102338004FF4A072002008F0D8FD4FF4A072F021ED
:10234800002008F0BBFD0623204601A9039308F0EE
:1023580054FD0A4B0E930A4B0F930A4B11930A4BE9
:102368001593204606A9094A094B08F064FD20B0D8
:1023780010BD00BFD0C3020860C20208CD22000809
:10238800D5220008E1220008F922000869A1000806
:1023980005A80008012914BF4FF0FF30002070473E
:1023A8000E4B034070B505460E4603B920B90C48DC
:1023B8004FF48861FFF79EF8012E0A4C05D90848AA
:1023C80040F24241FFF796F800E016B1236B1D4337
:1023D80002E0236B23EA0505256370BD00EE8B81BF
:1023E800701402080038024002484FF448410BF0CC
:1023F800C7BB00BF7C0B002070470000F8B503681E
:102408000F2B044604D9A24840F21511FFF772F8C1
:102418002368D80703D42368990756D4B7E06368BC
:10242800012B06D9052B04D099484FF48D71FFF77D
:1024380061F8984B9A6802F00C02042A07D09A684F
:1024480002F00C02082A0BD15B685A0208D5914B9E
:102458001B689B03DFD56368002BDCD10120F8BD26
:102468008D4D00232B7001F0FDFC0646894B1B683F
:102478009F0308D501F0F6FC41F28833801B98428F
:10248800F4D90320F8BD23792B70636873B101F088
:10249800E9FC05467F4B1B689803BCD401F0E2FCBD
:1024A80041F28833401B9842F4D9EAE701F0DAFC9C
:1024B8000546784B1B689903ADD501F0D3FC41F272
:1024C8008833401B9842F4D9DBE7E368012B04D931
:1024D8006F484FF4AD71FFF70DF823691F2B04D92E
:1024E8006B4840F25B11FFF705F86A4B9A6812F0E7
:1024F8000C0F07D09A6802F00C02082A18D15B6802
:102508005A0215D4634A13689B0702D5E368012B66
:10251800A4D11168F82393FAA3F3B3FA83F32069DB
:10252800DBB2984021F0F80140EA010313602EE085
:10253800E2685A4BEAB101221A6001F093FC0546A1
:1025480054490B689F0705D401F08CFC401B642894
:10255800F6D996E70A68F82393FAA3F3B3FA83F354
:102568002069DBB2984022F0F80240EA02030B60CF
:102578000DE01A6001F076FC0546464B1B689E0785
:1025880005D501F06FFC401B6428F6D979E723686C
:102598001D0703D42368580728D452E06369012B28
:1025A80004D93B484FF4CD71FEF7A4FF62693C4B58
:1025B80072B101221A6001F055FC0546354B5B6F7C
:1025C8009907E7D401F04EFC401B6428F6D958E778
:1025D8001A6001F047FC05462E4B5B6F9A07D9D568
:1025E80001F040FC401B6428F6D94AE7A368012B98
:1025F80030D8284A136C43F080531364A2F5E432B0
:10260800136843F48073136001F02CFC0546254BD6
:102618001B68DB0526D5244D00232B7001F022FC16
:1026280006461C4B1B6F9F0722D4237A2B70A36886
:10263800012B3BD101F016FC0546164B1B6F9E077C
:102648001ED5A369022B40D911484FF40271FEF739
:1026580051FF3AE0052BCCD00D484FF4E271FEF75C
:1026680049FFC6E701F0FEFB401B6428CFD908E705
:1026780001F0F8FB41F28833801B9842D1D900E77A
:1026880001F0F0FB41F28833401B9842D5D9F8E6B7
:102698009D140208003802400238024000004742F8
:1026A800800E4742007000407038024001F0DAFBAB
:1026B8000546504B1B6F9807C3D501F0D3FB41F279
:1026C8008833401B9842F4D9DBE6A2690AB9002096
:1026D800F8BD484B9B6803F00C03082B3FF4BEAED3
:1026E800022A454D75D1E36933F4800304D0434889
:1026F80040F21121FEF7FEFE236A3F2B04D93F4822
:1027080040F21221FEF7F6FE636AC03BF02B04D9B3
:102718003A4840F21321FEF7EDFEA36A23F00402C3
:10272800022A08D0042B06D0082B04D033484FF4D3
:102738000571FEF7DFFEE36A043B0B2B04D92F4833
:1027480040F21521FEF7D6FE00232B6001F08AFB2C
:102758000746284E3368990105D501F083FBC01B55
:102768006428F6D98DE647F6C07090FAA0F0B0FA62
:1027780080F04FF4403191FAA1F1B1FA81F14FF0B4
:10278800706292FAA2F2B2FA82F2276AE3693B43D4
:1027980043F00057636AC0B2834047EA0300A36A64
:1027A8005B08C9B2013B8B40D1B2E26A03438A405D
:1027B8001343736001232B6001F054FB04460D4B57
:1027C8001B689A0183D401F04DFB001B6428F6D9DD
:1027D80057E600232B6001F045FB0446054B1B68B8
:1027E8009B017FF574AF01F03DFB001B6428F5D910
:1027F80047E600BF00380240600047429D140208C7
:102808000368013B0E2B70B504460D4604D9A54854
:1028180040F27321FEF76EFE072D04D9A1484FF44C
:102828001D71FEF767FEA04B1A6802F00F02954271
:1028380040F28180EAB21A701B6803F00F03AB42C2
:1028480001D0012070BD23689E071DD5A36833F011
:10285800800212D023F02002902A0ED023F04002EA
:10286800A02A0AD023F01002C02A06D0F02B04D0E8
:102878008C4840F28A21FEF73DFE8C498B6823F094
:10288800F002A36813438B602368DD0704D4236830
:10289800580700F1CE80E4E06368022B04D9814830
:1028A80040F29121FEF726FE6268804B012A1968E2
:1028B80002D111F4003F06E0022A02D111F0007F94
:1028C80001E011F0020FBCD0996821F003010A431E
:1028D8009A6001F0C7FA6368012B05460ED1734B65
:1028E8009B6803F00C03042BD1D001F0BBFA41F232
:1028F8008833401B9842F2D9032070BD022B14D1B3
:102908006A4B9B6803F00C03082BC0D001F0AAFAAD
:1029180041F28833401B9842F2D9EDE701F0A2FA60
:1029280041F28833401B9842E6D8604B9B6813F00D
:102938000C0FF3D1ABE7236899071DD5A36833F0D3
:10294800800212D023F02002902A0ED023F04002F9
:10295800A02A0AD023F01002C02A06D0F02B04D0F7
:10296800504840F2D921FEF7C5FD50498B6823F045
:10297800F002A36813438B602368DA0709D44A4B33
:10298800EAB21A701B6803F00F03AB427FF459AF29
:102998007DE76368022B04D942484FF43871FEF78B
:1029A800A9FD6268414B012A196802D111F4003F60
:1029B80006E0022A02D111F0007F01E011F0020FB7
:1029C8003FF43FAF996821F003010A439A6001F090
:1029D80049FA6368012B06460DD1344B9B6803F016
:1029E8000C03042BCBD001F03DFA41F28833801B55
:1029F8009842F2D980E7022B15D12C4B9B6803F043
:102A08000C03082BBBD001F02DFA41F28833801B50
:102A18009842F2D970E701F025FA41F28833801B19
:102A280098423FF669AF214B9B6813F00C0FF2D127
:102A3800A5E7E36833F480520CD023F40062B2F5C2
:102A4800A05F07D0B3F5C05F04D016484FF44C71AF
:102A5800FEF750FD15498B6823F4E052E3681343F1
:102A68008B6023681B0718D5236933F480520CD078
:102A780023F40062B2F5A05F07D0B3F5C05F04D0BD
:102A8800084840F23731FEF735FD084A2169936856
:102A980023F4604343EAC10393600F2001F0B2F9C5
:102AA800002070BD9D140208003C0240003802401E
:102AB80030B51D4CA36803F00C03042B30D0082B51
:102AC80030D16268636802F03F0513F4800F47F65F
:102AD800C071636891FAA1F1B1FA81F147F6C0704B
:102AE80004BF124AB2FBF5F2C9B200EA030020FAA9
:102AF80001F01CBF0E49B1FBF5F202FB00F30A4AD4
:102B080050684FF4403292FAA2F2B2FA82F2D2B28C
:102B180000F44030D04001304000B3FBF0F030BD4D
:102B2800034830BD014830BD003802400024F4009D
:102B380000127A0008B5FFF7BBFF094B9A68F0232B
:102B480093FAA3F3B3FA83F302F0F002DBB222FAAA
:102B580003F3044AD35CD840034B186008BD00BF98
:102B6800003802408D1402080000002008B5FFF765
:102B7800E1FF084B9A684FF4E05393FAA3F3B3FAD2
:102B880083F302F4E052DBB222FA03F3024AD35C85
:102B9800D84008BD003802408D14020808B5FFF778
:102BA800C9FF084B9A684FF4604393FAA3F3B3FA4A
:102BB80083F302F46042DBB222FA03F3024AD35CE5
:102BC800D84008BD003802408D1402082DE9F041B4
:102BD8000D460446164601F045F9C5F30748074671
:102BE8002368B8F1010F0CBF58699869C04380B2D7
:102BF800284214BF0120002028B35A69520510D575
:102C08001A6842F400721A606FF480625A610423F1
:102C1800A3630120002384F8350084F83430BDE82C
:102C2800F081731CDCD046B9012384F835300023C9
:102C380084F834300320BDE8F08101F013F9C01B9B
:102C4800B042CDD9F0E7BDE8F0812DE9F0410E465C
:102C58001D460446904601F005F9330C0746B8F1C5
:102C6800000F34D15FFA83F82368B8F1010F0CBF65
:102C78005B699B69DB439BB2334214BF012300238A
:102C8800C3B16A1CF0D0CDB101F0ECF8C01BA8426A
:102C9800EAD913E06B1C10D12368B8F1010F0CBFFF
:102CA8005B699B69DB439BB233420CBF0123002362
:102CB800002BEFD10020BDE8F0815DB9012384F835
:102CC8003530002384F834300320BDE8F0815FFA02
:102CD80083F8E1E701F0C6F8C01BA842DCD9EDE7AC
:102CE80070B516460268136843F4807313600D4686
:102CF80000224FF0011133460446FFF7A6FF20BB20
:102D080023692268B3F5804F03D105F0FE051561EC
:102D180013E005F44073DB1143F0F0031361204620
:102D28000B493246FFF752FF20B1A36B042B0CD19D
:102D3800012070BD2368EDB21D6120460549324669
:102D4800FFF744FF0028F0D100E0032070BD00BF6A
:102D580008000100020001000368F7B516461A686A
:102D680042F480621A601A6842F480721A600D4652
:102D780000224FF0011133460446FFF766FFD0B931
:102D880023692268B3F5804F04D145F00105EDB2FF
:102D9800156133E005F44073DF0947F0F003136170
:102DA80020461B493246FFF711FF30B1A36B042BB5
:102DB80001D1012029E0032027E023681549EDB25D
:102DC80032461D612046FFF701FF02460028EDD17B
:102DD800236859690191996901910199196841F428
:102DE8008071196020464FF001113346FFF72DFF1F
:102DF8000028E0D1226847F0F10313612046054915
:102E08003246FFF7E3FE0028D0D103B0F0BD00BF83
:102E1800080001000200010070B50446002800F017
:102E2800BB8003685D4A93420CD002F580629342EE
:102E380008D002F58062934204D059484FF4967145
:102E4800FEF758FB6368574A013B934204D954483C
:102E580040F22D11FEF74EFBA36833F4804304D0F3
:102E68004F484FF49771FEF745FBE36823F47F73EF
:102E780023F0030323B14A4840F22F11FEF73AFB2F
:102E8800236923F40043B3F5804F04D044484FF43A
:102E98009871FEF72FFB6369012B04D9404840F273
:102EA8003111FEF727FBA36933F0FE0304D03C4839
:102EB8004FF49971FEF71EFBE36933F0400304D029
:102EC800374840F23311FEF715FB236A33F08003CD
:102ED80004D033484FF49A71FEF70CFB94F8353060
:102EE80013B92046FEF742FB22682F4D022384F8CF
:102EF8003530136823F001031360FFF737FE63686A
:102F080022682A49B0FBF1F1AB422E4688BF4FF444
:102F18009675516082BF69434FF47A75B1FBF5F13C
:102F2800B34201F10101116208D85B00B0FBF3F074
:102F3800C0F30B03032B98BF042016E0A16849B91E
:102F480003EB4303B0FBF3F0C0F30B0363B140F4AE
:102F580000400AE019214B43B0FBF3F0C0F30B0328
:102F680013B140F4404000E00120216AE369D061D8
:102F78000B431360E16823690B439360A16963699C
:102F88000B43D360136843F001031360002001234F
:102F9800A06384F8353070BD012070BD0054004036
:102FA800EC1402087F1A0600A086010040420F00B8
:102FB8002DE9F34190F83540E4B2012C0546174657
:102FC8001E465ED1002A5AD0002B58D003689B6950
:102FD80013F0020855D190F83430012B51D0122348
:102FE80080F8353080F83440C0F83880089AFFF708
:102FF80077FE28B1AB6B85F83480042B0DD13EE009
:103008002B685A6901929B690193019B1F49089B90
:1030180028460022FFF719FE08B1032032E02A688B
:103028003B7813615169731E49079BB202D401377B
:103038001E460EE043B928461449089B0022FFF7B4
:1030480004FE0028E9D107E07B781361023EB6B29E
:103058000237002EDAD1EEE72A680D49136843F4E7
:103068000073136028460122089BFFF7EEFD002835
:10307800D3D1012385F8353085F8340002E02046A5
:1030880000E0022002B0BDE8F08100BF800001002E
:10309800020010002DE9FF4190F83550EDB2012DE6
:1030A800044617461E4640F0A980002A00F0A48076
:1030B800002B00F0A18003689B6913F0020840F020
:1030C8009D8090F83430012B00F09880222380F8FE
:1030D800353080F83450C0F838800A9AFFF73CFE43
:1030E80028B1A36B84F83480042B33D184E023689F
:1030F800012E1A680CD122F480621A605A69019272
:103108009A690192019A1A6842F400721A6016E0EC
:10311800022E0CD122F480621A601A6842F400620E
:103128001A605A6902929B690293029B07E042F473
:1031380080621A605A6903929B690393039B032E6A
:10314800204640D8012E0BD138490A9B0022FFF7B0
:103158007CFD08B1032065E023681B693B704FE0E4
:10316800022E33490A9B4FF000020ED1FFF76DFD86
:103178000028EFD123681A6842F400721A601B69AC
:103188003B7023681B697B703AE0FFF75EFD0246DF
:103198000028DFD12368196821F4806119601B6950
:1031A8003B70204622490A9BFFF74FFD0028D1D1EA
:1031B80023681A6842F400721A601B697B702368DE
:1031C8001B69BB701CE019490A9B0022FFF73DFDF3
:1031D8000028BFD123681B693B70226853695B07CD
:1031E80059BF7B1C06F1FF36BB1C126944BF7A70BD
:1031F800023EB6B21F46A2E7284613E0022011E0BD
:1032080022680C49136823F40063136020460122E6
:103218000A9BFFF71AFD00289CD1012384F835305A
:1032280084F8340004B0BDE8F08100BF400001001C
:10323800040001000200100090F8350070470000FB
:10324800C31E042B10B5044603D90948A421FEF770
:1032580051F9084AD1684FF6FF030B4043F0BF63AA
:1032680043F4003304F0070443EA0423D36010BD99
:103278003B15020800ED00E00F2A70B505460C4624
:10328800164603D91A48BC21FEF734F90F2C03D986
:103298001748BD21FEF72EF9164BDB68C3F302234E
:1032A800C3F10702191D042A28BF042206298CBF6E
:1032B800033B0023012101FA03F091400139013851
:1032C8000C409C400640002D44EA06044FEA0414D2
:1032D800AFBF05F1604505F00F05074BE4B2A5BF88
:1032E80005F56145E4B25C5585F8004370BD00BF43
:1032F8003B15020800ED00E014ED00E010B5041ED7
:1033080003DA0648D021FEF7F5F86109012304F035
:103318001F04034AA34042F8213010BD3B150208A0
:1033280000E100E00138B0F1807F3FBF064B074A5B
:103338005860F0213FBF82F82310002007229860D0
:1033480034BF1A600120704710E000E000ED00E093
:103358002DE9F8434268624B9A42044604D9614811
:1033680040F22E71FEF7C6F8E36833F4005304D038
:103378005C4840F22F71FEF7BDF8236933F4806290
:1033880007D0B3F5C06F04D056484FF4E661FEF796
:10339800B1F862694FF6F373134003B922B9514883
:1033A80040F23171FEF7A6F8266821693369E069B1
:1033B80023F44052E3681343A2683361F36811436E
:1033C800626923F416430A43024323F00C031343B0
:1033D800F360736923F44072A369B0F5004F43EAC0
:1033E80002037361404B36D19E4203D003F58063DC
:1033F8009E4216D1FFF7D2FB6768192568437F0004
:10340800B0FBF7F7FFF7CAFB62684FF06408684340
:10341800B7FBF8F752003F01B0FBF2F9FFF7BEFB2C
:1034280015E0FFF7A3FB6768192568437F00B0FB29
:10343800F7F7FFF79BFB62684FF064086843B7FB38
:10344800F8F752003F01B0FBF2F9FFF78FFB454355
:103458006068400034E09E4202D0244B9E4216D160
:10346800FFF79CFB676819256843BF00B0FBF7F7B7
:10347800FFF794FB62684FF064086843B7FBF8F7FE
:1034880092003F01B0FBF2F9FFF788FB15E0FFF768
:103498006DFB676819256843BF00B0FBF7F7FFF7B6
:1034A80065FB62684FF064086843B7FBF8F7920061
:1034B8003F01B0FBF2F9FFF759FB45436068800014
:1034C800B5FBF0F0B0FBF8F008FB109212013232B5
:1034D800B2FBF8F303F00F033B43B360BDE8F88396
:1034E800A037A0008D15020800100140001401400B
:1034F80010B5044600286CD081690368364AC1B10A
:1035080093420FD0A2F54C4293420BD002F5806251
:10351800934207D002F54C42934203D02F48FC2136
:10352800FDF7E8FFA36933F440731CD02B48FD2155
:1035380017E0934217D02A4A934214D002F58062CA
:10354800934210D002F5806293420CD002F580625B
:10355800934208D002F54442934204D01F4840F2F7
:103568000111FDF7C7FFA36833F4805304D01B484B
:1035780040F20311FDF7BEFFE36933F4004304D0C2
:1035880016484FF48271FDF7B5FF94F8393013B936
:103598002046FDF7B9FF2268022384F83930D36842
:1035A80023F40053D3602046FFF7D2FE23681A693C
:1035B80022F490421A615A6922F02A025A61DA68A2
:1035C80042F40052DA6000200123E06384F83930C5
:1035D80010BD012010BD00BF001001408D1502086C
:1035E8000044004090F83930DBB2012B01D0222B87
:1035F8002AD139B332B390F83830012B24D00123C3
:1036080080F838300023C36390F839308284222B45
:10361800C28408BF32230268016218BF122380F8EF
:103628003930D36843F48073D360536943F001039E
:103638005361D168002341F0800180F83830D160AF
:1036480018467047012070470220704790F83930BB
:10365800DBB2012B01D0122B2AD139B332B390F847
:103668003830012B24D0012380F838300023C3637D
:1036780090F839308285122BC28508BF3223026840
:10368800816218BF222380F83930D36843F48073ED
:10369800D360536943F001035361D168002341F0BB
:1036A800200180F83830D1601846704701207047F3
:1036B800022070471FB503681968DA68C90704460D
:1036C8000AD5D00508D51A6801925A680192019A5C
:1036D800E26B42F00102E26319685A6989070AD568
:1036E800D00708D51A6802925A680292029AE26BC9
:1036F80042F00402E26319685A6949070AD5D007FB
:1037080008D51A6803925A680392039AE26B42F04A
:103718000202E2631968DA68890642D5900640D544
:1037280094F8392002F0EF02222A3AD1A2682169DE
:10373800B2F5805FA26A0BD15B6821B9C3F30803B5
:1037480022F8023B02E0DBB222F8013BA2620AE067
:1037580019B9511CA1625B6804E05B68511CA16245
:1037680003F07F031370E38D013B9BB2E385C3B97C
:103778002368DA6822F02002DA6094F83920322AC5
:103788001FBFDA6822F48072DA605A691BBF22F020
:1037980001025A611223012384F83930204600F0CF
:1037A800F9FF23681968DA68090628D5100626D5AE
:1037B80094F8392002F0DF02122A20D1A268B2F56B
:1037C800805F226A0AD11188C1F308015960216912
:1037D80009B9023200E00132226203E0511C216281
:1037E80012785A60E28C013A92B2E2843AB9DA6805
:1037F80022F08002DA60DA6842F04002DA60196882
:10380800DA68490619D5520617D5DA6822F0400257
:10381800DA6094F83920322A1FBFDA6822F48072FD
:10382800DA605A691BBF22F001025A612223012380
:1038380084F83930204600F0A7FFE36B2BB1012351
:1038480084F83930204600F0ABFF04B010BD00000A
:103858000B6833F0060370B505460C4603D047489D
:103868009721FDF747FE636833F0020303D043480E
:103878009821FDF73FFEA36833F0040205D0082B1A
:1038880003D03E489921FDF735FEE36833F0100276
:1038980005D0202B03D039489A21FDF72BFE236948
:1038A80033F4807303D035489B21FDF723FE636909
:1038B80033F4007303D031489C21FDF71BFEA36944
:1038C80033F4806303D02D489D21FDF713FEE3698F
:1038D80033F4006303D029489E21FDF70BFE236AC9
:1038E80033F4805303D025489F21FDF703FE636A14
:1038F80033F4005303D02148A021FDF7FBFDA36A50
:1039080033F4804303D01D48A121FDF7F3FDE36A9A
:1039180033F4004303D01948A221FDF7EBFD236BD4
:1039280033F4002303D01548A321FDF7E3FD2068F5
:10393800134A55F82030A6681A40636846EA03011E
:10394800E36819432369194363691943A369194350
:10395800E3691943236A1943636A1943A36A19433C
:10396800E36A0B43216B0B431343082E08BF43F054
:10397800400345F82030002070BD00BFDD15020867
:103988008000F7FF0B680F2B70B505460C461646EE
:1039980003D92848F821FDF7ADFD6368013B0E2BDC
:1039A80003D92448F921FDF7A5FDA368013BFE2BA7
:1039B80003D92048FA21FDF79DFDE3680F2B03D9B1
:1039C8001C48FB21FDF796FD2369013B0F2B03D90A
:1039D8001848FC21FDF78EFD6369013B102B03D9C4
:1039E8001448FD21FDF786FDA36933F0405303D049
:1039F8001048FE21FDF77EFD05EB8602A16953689C
:103A0800A56803F0404623680B43616843EA011147
:103A180041EA05212369E568013B41EA054545EA94
:103A280003516369023B41EA036333435360002057
:103A380070BD00BFDD150208B3F5804F70B50546AF
:103A48000C46164656D10B680F2B04D92C484FF458
:103A58009371FDF74FFD6368013B0E2B04D928488D
:103A680040F22711FDF746FDA368013BFE2B04D960
:103A780023484FF49471FDF73DFDE3680F2B04D9FB
:103A88001F4840F22911FDF735FD2369013B0F2B33
:103A980004D91B484FF49571FDF72CFD6369013B70
:103AA800102B04D9164840F22B11FDF723FDA3690A
:103AB80033F0405304D012484FF49671FDF71AFDC5
:103AC80055F82630A269A16803F0404023681343E3
:103AD800626843EA021242EA01222369E168013B73
:103AE80042EA014141EA03526369023B42EA036345
:103AF800034301E06FF0704345F82630002070BDA5
:103B0800DD15020870B50E4615460446F0B190F86A
:103B18003D300BB9FDF780FD04F108012068FFF77F
:103B280097FE3146A2682068FFF72CFF2946A26855
:103B3800236B6068FFF780FFA168226852F8213084
:103B480043F0010342F82130002070BD012070BD10
:103B58002DE9F843914B984204460D4623D003F5CE
:103B6800806398421FD003F5806398421BD003F509
:103B78008063984217D003F58063984213D003F509
:103B8800806398420FD003F5806398420BD003F509
:103B98008063984207D003F58063984203D0804839
:103BA800C521FDF7A7FC2B881BB97D48C621FDF769
:103BB800A1FC6B68032B17D9A3F11102012A13D9B1
:103BC800784923F400128A420ED001F580118B4205
:103BD8000AD0A1F570218A4206D0734A934203D0D5
:103BE8006F48C721FDF786FCAB68022B03D96C48E8
:103BF800C821FDF77FFC002601232F68B3401F4032
:103C08009F4240F0C5806B6823F01003022B17D148
:103C18002B690D2B05D90F2B03D06148D921FDF74E
:103C280069FCF20804EB820206F00701106A8900B9
:103C38000F238B4020EA03002B698B400343136258
:103C48004FEA46094FF0030822686B6808FA09F83A
:103C58006FEA080808EA020103F0030223F01003E0
:103C680002FA09F2013B0A43012B226017D8EB68DC
:103C7800032B03D94A48EC21FDF73CFCA36808EA6A
:103C88000302EB6803FA09F31343A360636823EAAA
:103C980007026B68C3F30013B34013436360E36820
:103CA800696808EA0308AB6803FA09F348EA0303FA
:103CB800E360CB006CD53D4A536C43F480435364B6
:103CC80026F0030202F1804202F59C3206F0030E50
:103CD80090684FEA8E0E0F2303FA0EF320EA0300D2
:103CE8002E4B9C4222D003F580639C4220D003F5E2
:103CF80080639C421ED003F580639C421CD003F570
:103D080080639C421AD003F580639C4218D003F567
:103D180080639C4216D003F580639C4214D003F55F
:103D280080639C420CBF082309230EE000230CE0AB
:103D380001230AE0022308E0032306E0042304E049
:103D4800052302E0062300E0072303FA0EF30343EA
:103D5800174893600368FA4311F4803F14BF3B434C
:103D6800134003604368880311484CBF3B4313402A
:103D78004360836811F4801F14BF3B431340836082
:103D8800C368890254BF02EA03071F43084BDF6078
:103D98000136102E7FF430AFBDE8F88300000240F2
:103DA8002C160208000011100000221000380240F2
:103DB800003C014070B5054616460C4621B9084836
:103DC8004FF4D671FDF796FB012E05D9044840F251
:103DD800AD11FDF78FFB01E006B92404AC6170BD9D
:103DE8002C16020838B504460D4621B9044840F29D
:103DF800C311FDF77FFB61696940616138BD00BF90
:103E08002C16020810B50446FEF794FE4FF47A7398
:103E1800B0FBF3F0FFF786FA4FF0FF30214600229F
:103E2800FFF72AFA002010BD08B5094B1A6842F4BA
:103E380000721A601A6842F480621A600320FFF761
:103E4800FFF90F20FFF7DEFFFDF72EFC002008BD6D
:103E5800003C0240024A136801331360704700BFF8
:103E680000D40020014B1868704700BF00D4002020
:103E780013B50190FFF7F6FF0446FFF7F3FF019B28
:103E8800001B9842F9D302B010BD0000014B18681E
:103E9800000C7047002004E037B51C4B1C4C019403
:103EA80002250095186814210322002300F060FC05
:103EB800184B00950194186814210322002300F080
:103EC80057FC154B00950194186814210322002310
:103ED80000F04EFC114B0095019418681421032240
:103EE800002300F045FC0E4B0093002204230193AD
:103EF8004FF4E1304FF44871134600F00DFC0948C7
:103F080003B0BDE830400EF051BF00BF0C000020E8
:103F180050E40020100000200400002008000020C9
:103F2800F0E300207C16020882B00190019B5A1E23
:103F38000192002BFAD102B0704700002DE9F84F2A
:103F48004FF0C044112525804CF25030FFF7ECFFAC
:103F5800CF232380594B0022C3211A804FF0300E03
:103F68001980ED21A3F800E0218064211980122036
:103F780003211980188081201880E820208085205E
:103F88001880102679201E801880CB2020803920A8
:103F980018804FF02C093420A3F800901A8018805C
:103FA80002201880F7202080EA2720201880278008
:103FB800C0271A801A80278022271F80C1272780C0
:103FC800C5271D8027803D271F801880C720208097
:103FD800AA20188036202080882018803A20208047
:103FE80055201880B12020804FF0130AB6201A807F
:103FF8000A27A3F800A04FF0A2082080F6201F800F
:10400800A3F80080208001201880A3F800E04FF07A
:10401800F20EA4F800E04FF0260E1A80A4F800E093
:104028001880E02020804FF03F0C0F204FF02F0E1B
:1040380018804FF0530BA3F800C0A3F800E04FF02E
:104048000C0EA3F800E01E801F80A3F800B04FF00C
:10405800D50BA3F800B04FF0400BA3F800B01F80B9
:104068000827A3F800A019801F80E12719801A806B
:1040780027801A801A8005221E80198018801A80CD
:10408800A3F80090A3F80080A3F800C01A800E22BD
:104098001A803722A3F800E01A803C221A80188080
:1040A80025804CF25030FFF73FFF292323804CF244
:1040B8005030BDE8F84FFFF737BF00BF000002607F
:1040C8000C4B07B5187059700B48FFF7B5F8012865
:1040D800FAD14FF47A7300930748064A70210223F5
:1040E800FEF766FF10B105480EF060FE002003B031
:1040F8005DF804FBFEE500205CE3002037170208AA
:104108001A4B07B518701A48FFF796F801280346A6
:10411800F9D14FF47A7200921548144A7021FEF7CB
:1041280047FF38B113484FF48051FFF75BFE124840
:104138000EF03CFE0E48FFF77FF801280346F9D140
:104148004FF47A7200920A480C4A7021FEF7A2FFD7
:1041580038B108484FF48051FFF744FE06480EF086
:1041680025FE064B187803B05DF804FBFEE5002039
:104178005CE30020000C024037170208E0E500204D
:1041880038B5204C054608212046FFF72BFE0520B0
:10419800FDF71EF820460821FFF724FE2946802057
:1041A800FFF78EFF0021A420FFF78AFFA820FFF762
:1041B800A7FF154CA075A320FFF7A2FFE075A62066
:1041C800FFF79EFF20768820FFF79AFF6076802011
:1041D800FFF796FFA17DA0760C480EF0A5FDE17DC6
:1041E8000B480EF0A1FD217E0A480EF09DFD617E70
:1041F80009480EF099FDA17E08480EF095FD0020B3
:1042080038BD00BF00080240E2E500208916020818
:10421800A0160208B7160208CE160208E51602080C
:1042280030B585B00DF1010502242046FFF768FF7F
:104238000134E4B2072C05F8010FF6D19DF80220ED
:10424800114B5A70013A012A0AD900225A709A80F1
:104258001A819A72DA72DA815A821A755A7511E0DD
:104268009DF8032002F00F019DF8042042EA012284
:104278009A809DF8052002F00F019DF8062042EA79
:1042880001221A8105B030BDE2E5002010B50021F9
:104298004FF6FF73CAB2824212D20C4A8A5C53406C
:1042A800082203F001045B0824B183F4204383F05F
:1042B80001039BB2013A12F0FF02F2D10131E9E7A2
:1042C800180A40EA032080B210BD00BF08D40020BD
:1042D80008B5074B1B68DA890132DA8100229A8215
:1042E800044B03221A70FCF77DFF034B186008BDCE
:1042F8001CE0002020E0002010DC002008B50C4B5A
:104308001B68198A9A8A013119820A490132097887
:1043180092B291429A8202BF00229A759A82064B03
:1043280003221A70FCF75EFF044B186008BD00BF3B
:104338001CE0002008D8002020E0002010DC00202D
:104348002DE9F84FB24C2378022B254600F0D18096
:10435800032B00F0C281012B40F0D081AD4BAE4958
:104368001E88AE4B1F680B880020B34208BF00238D
:10437800182202FB0372947D44B9013080B2B04226
:1043880004D10B80A64B1A60BDE8F88F01339BB2AD
:10439800002CEAD00B80A24F9389A24E3A600133D9
:1043A8009381137833705378737053881B12B370EA
:1043B8005388F37093881B12337193887371537801
:1043C800102B1AD114796400E4B2B47192F804E0A5
:1043D80000214FEA4E0ECBB203F1070C71455FFA8C
:1043E8008CFC3ED090680833405ADBB24FEA202854
:1043F80006F80C800231F054EDE70F2B34D1938886
:10440800C3F3071E4FEA4E041907E4B21EBF013476
:104418000EF1010EE4B24FF0000818BF5FFA8EFEED
:10442800B4714FF0070CC1465FFA88F3734518D290
:10443800916831F8180006F80C0009F10101CBB2B7
:10444800A3420AD2774B6344001258700CF1020C55
:1044580009F10203DBB25FFA8CFC08F10108994606
:10446800E2E70934E4B200E00824A01EC0B2FFF776
:104478000DFF3319021203F8022C03F8010C6A49E4
:104488006A482246FFF7AEF810B169480EF08EFC74
:104498004FF000085FFA88F3A3420BD2624B16F87C
:1044A800082008F80320414662480EF03DFC08F158
:1044B8000108EFE7604B5D48604900221A703B68CD
:1044C8009A885200053292B2FFF7C0F810B15C48E2
:1044D8000EF06CFCFCF786FE5A4B186002232B701A
:1044E8003B681B78002B40F00981BDE8F84FFFF7C7
:1044F800EFBE554B00221A704C4A1268126812F02F
:10450800200F994640F0F680504B1A789A46002AB8
:1045180000F0CD80002389F80030414E99F8004022
:104528003768DFF824B1B7F804803E4D08F102037C
:10453800B4EB430F0CDC414B45481A5D2A55214624
:104548000EF0F2FB9BF8003001338BF80030E4E703
:1045580000238AF800303B782B70002B00F0CE80C7
:10456800A01E2C44C0B2FFF791FE14F8022C14F8D8
:10457800013C43EA0223984240F095806B781A0682
:1045880003D57B8A01337B828DE0013BDBB20F2BA5
:1045980000F28980012202FA03F313F4404274D135
:1045A80013F00C0F56D19B077DD0C8F307104300BA
:1045B80018F00F0FDBB218BF0133AE781EBF013001
:1045C800DBB2C0B29E426ED14FF0000E0324F44617
:1045D8005FFA8EF3834288D20CF10102D3B2B34260
:1045E80038BF104A295D37BF12198AB252780CF1C8
:1045F800020338BF41EA0222B9683CBFDBB2023489
:1046080021F81E2038BFE4B20EF1010E9C46DFE708
:1046180020E0002006D4002014DC00200CDC002060
:104628001CE0002008D400201ADC0020BCE2002096
:10463800FC160208111702081AE0002009D8002009
:104648002917020810DC00201BE0002004D40020F9
:104658003D170208AB78B3EB480F24D13068D1B2CC
:10466800541C82884B0003338A42DBB27FF63DAF8D
:10467800EA5C2B445B7843EA02228368204823F8EB
:1046880011200EF051FB2246E8E72A796B79A878C9
:10469800798843EA0223EA7842EA0022914202D169
:1046A80043453FF422AFBDE8F84FFFF727BE154C4E
:1046B800FCF798FD2368C01A134B1B8898421DD934
:1046C800FCF790FD2168411A10480EF02DFBFFF70A
:1046D80015FE01232B70BDE8F88FFCF783FD094B0D
:1046E8001B68C01A0A4B1B88984207D901232370FC
:1046F800BDE8F88F07480EF059FB05E7BDE8F88FCD
:104708005417020810DC002008DC00206417020897
:1047180018DC00207117020830B5B0F5964F0C4D23
:104728009ABF0C4CB4FBF0F040F2EE2028800A4807
:10473800012404700948018009490A80094A137054
:10474800094BBDF810201A80084B039A1A6030BD37
:1047580016DC002020C5FB0020E0002008DC00203B
:1047680018DC002008D8002006D400200CDC00202B
:104778004380BDF800308380019B83600123017072
:104788004270837570470000014B01221A70704710
:104798001AE00020014B01221A70704704D400204F
:1047A80010B5044604480EF001FBE16B0348BDE870
:1047B80010400EF0B9BA00BF81170208911702081D
:1047C80037B50C46054660B109F0B4F9826B019023
:1047D800A24203D08463284603F012FE01A809F020
:1047E800B7F93EBD37B50D46044660B109F0A2F9E8
:1047F800024602A8A2F8485040F8042D09F0A8F98A
:10480800204603F0FDFD3EBD37B50C46054600B316
:1048180009F090F9436C00906846019309F098F903
:10482800214601A807F05EF8D0F1010438BF002442
:1048380084B9284609F07EF9019A416C00909142AA
:1048480018BF4264684609F083F9284603F0D8FD8A
:1048580000E0012420463EBD37B50C46054660B150
:1048680009F068F9426B0190A24203D044632846DC
:1048780003F0C6FD01A809F06BF93EBDF0B587B09D
:10488800B0F90C70B0F90E60B0F91050B0F90AE048
:10489800009102210191448A0294B0F90810039111
:1048A800446804948469F9180EEB020005943246B2
:1048B8002B4600F065F807B0F0BD30B545680446F2
:1048C80085B02846214609F075FD002856D0236892
:1048D8000F2B1ED0B3F5107F0ED00B2B4BD12846D3
:1048E80009F028F904AD45F80C0D443009F074FBC3
:1048F800284609F02DF93EE0E06828B1017A002940
:104908000CBF0221012100E00321284602F0BBFE72
:1049180031E0284609F00EF90090806B06F07AFF26
:10492800009A506B07F012FD284602F08DFC28B95A
:10493800009BD86B06F066FF08F0EAFC0098416C13
:10494800A9B1022007F0F8FC02A803F069F8009A60
:10495800506C09F0EFF8009B0190B3F9482093F8E8
:10496800403002A908F07AF901A809F0F1F8684680
:1049780009F0EEF802E0204604F06CF905B030BD0D
:10498800F0B587B00C9D109C00950D9D45F0010574
:1049980001951D4D0295119D2035039503F0ECFD01
:1049A800054668B30CB9002713E020460EF08AFAD2
:1049B800013009F033FB07460028F4D009F0BAF8B3
:1049C80006AE214646F8040D0EF01EFA304609F0F0
:1049D800BFF8284609F0AEF806AE0F9905900022F8
:1049E80009F0E0FC56F8044D0E9B0848A4F848303E
:1049F8000FC86764343484E80F00304609F0A8F81B
:104A0800284607B0F0BD00BFC348000814000020C6
:104A1800F0B587B0B0F90C70B0F90E60B0F910506D
:104A2800B0F90AE0009100210191448A0294B0F99A
:104A3800081003918469F9180EEB020004943246B9
:104A48002B4600F003F807B0F0BD00002DE9F04157
:104A580086B00C9C00940D9C44F0010401941C4CFD
:104A68000294109C3834039403F086FD804658B3B2
:104A780009F060F80E9B174D0F99059013F0080F79
:104A880014BF1822102209F08DFC06AF0FCD57F87D
:104A9800046D06F134040FC495E8030084E80300AC
:104AA8000D4C206808216422F06400234FF0FF3089
:104AB800A6F8601072653065B365384609F048F8A5
:104AC800216840464A689047404606B0BDE8F081F4
:104AD800C34B0008280000202400002010B586B031
:104AE800089C0094099C01940A9C02940B9C0394D2
:104AF80000240494FFF7AAFF06B010BD37B5054699
:104B0800C0B109F017F8C26D816D02AC8A4244F851
:104B1800040D0CDD531EC365284603F071FC2046C6
:104B280009F016F82846052102F0ADFD02E02046FE
:104B380009F00EF83EBD37B50546C0B108F0FAFFDA
:104B4800C26D416D02AC8A4244F8040D0CDA531C64
:104B5800C365284603F054FC204608F0F9FF2846B0
:104B6800052102F090FD02E0204608F0F1FF3EBD6D
:104B780073B50E460546F8B108F0DCFF826D436D4B
:104B88009642ACBF31461146C26D02AC9942A8BFED
:104B980019468A4244F8040D0BD0C165284603F033
:104BA8002FFC204608F0D4FF2846052102F06BFDB3
:104BB80002E0204608F0CCFF7CBD2DE9F74F4468A1
:104BC80005462946204609F0F5FB002800F0A48098
:104BD8002B680F2B06D0B3F5107F14D00E2B40F0A6
:104BE800988086E0204608F0A5FF02A941F8040D48
:104BF800C56C2D68084608F0ABFF002D00F08C80CE
:104C08002046A84788E0EF68002F00F08280204601
:104C180008F090FF034602A89E6D40F8043DD3F8C3
:104C28005490B3F860B0B3F83280D3F828A008F0F5
:104C38008FFF3A7A002A48D00FFA8BFB022308F03C
:104C480008009BFBF3F281B202F1010B09B17F6806
:104C580000E03F68CBEB0707204609F053FB002F25
:104C680012DDA0EB4B0297420DDA002A08BF0122A1
:104C78000223C6EB090992FBF3F009FB0707B7FB10
:104C8800F2F18E1900E04E46204602F0C7FD10B141
:104C9800204602F077FB2046012102F047FC08F489
:104CA800807820463146FFF763FF1FFA88F282BBFF
:104CB80020464FF480710AF0020A09F04AFB1FFAF5
:104CC8008AF333B32046012110E008F480781FFAF4
:104CD80088F0F0B14FF4807120460AF0020A09F01A
:104CE8004DFB1FFA8AF1A1B12046022102F0CBFC4C
:104CF8000FE0EA685168106800290ADD102805D01D
:104D0800122806D12046FFF716FF02E02046FFF7DB
:104D1800F5FE284603F09EFFBDE8FE8F73B50C46EE
:104D280016460546B0B108F005FFC16D0190A642D0
:104D3800ACBF32462246A142B8BFC465C36D846584
:104D480093424265C8BFC26501A808F001FF284622
:104D580003F056FB7CBD13B5044640B108F0EAFEEB
:104D680002ABC46D43F8040D184608F0F1FE204666
:104D78001CBD2DE9F3410C4616460746E0B108F084
:104D8800D9FE054602A8D5F85C8040F8045DB5F860
:104D9800645008F0DDFEAE420ED224B1204606F083
:104DA80041FD431C00E0234640463146224600F0C0
:104DB800C2FD384603F024FBBDE8FC8137B50C463C
:104DC800054680B108F0B6FE026C0190944207D007
:104DD8000464C06D00F030FD10B1284603F010FBEC
:104DE80001A808F0B5FE3EBDF0B589B04469B0F938
:104DF8000C70B0F90E60B0F91050B0F90AE00091EB
:104E0800418A019100210291B0F908100391E1B2A1
:104E1800C4F30724049105948469F9180EEB020081
:104E2800069432462B4600F037F809B0F0BD30B58D
:104E38008BB0054608F07EFE0AAB826D43F8280D5C
:104E48009468684608F084FE19200290019561680C
:104E580001A888470BB030BD37B50C46054608F0A9
:104E680069FEB0F86420B0F9601001909442A8BFC0
:104E7800541E8C420CD0A0F86040284603F0C0FABB
:104E880001A808F065FE2846052102F0FCFB02E0B7
:104E980001A808F05DFE3EBD2DE9F04F354C87B006
:104EA8002469149F159DDDF840A06688002DCCBFAD
:104EB800A9464FF01409002FD8BF02271BB90436A2
:104EC8007B1E09FB03630AB922880432119CCDF8C2
:104ED80000A044F00106284C01960294169C3C342C
:104EE800039403F049FB064600283FD000F087FDF5
:104EF80000240546002128460A46013400F0AAFC91
:104F0800BC42F7DB304608F015FE129BDFF86CB0A8
:104F1800C56503F4807213990590002A14BF4FF4F5
:104F28008872102209F03EFA124DDDF81480DBF881
:104F38000000C8F858000FCD08F134040FC40FCD95
:104F48000FC429685046216002F078FDC8F8340083
:104F580006A850F8043DA3F86470A3F8629008F01E
:104F6800F7FDDBF80020304651688847304607B027
:104F7800BDE8F08F40000020F94F000864000020D1
:104F880073B50C460546A8B108F0D4FD02AB90F8FD
:104F9800666043F8040D184608F0DAFD28462EB17D
:104FA80005490A6812B12146904703E024EAE471F2
:104FB800FFF752FF7CBD00BF00E6002073B50C462A
:104FC800064668B108F0B6FD024602A8B2F960507C
:104FD80040F8042D08F0BCFD30462919FFF7D0FF32
:104FE8007CBD0121FFF7EABF4FF0FF31FFF7E6BFB5
:104FF8002DE9F743446805462946204609F0DAF9C1
:10500800002800F09C802B680F2B0ED006DC0B2BA1
:1050180000F086800E2B40F08F806DE02B2B14D093
:10502800B3F5107F40F088801CE0204608F082FD30
:1050380002AB43F8040D856D2D68184608F088FD0D
:10504800002D7CD02046A84779E0204608F072FD64
:1050580002A941F8040D90F86600E860084608F0D7
:1050680077FD6CE02046EE6808F064FD019090F84A
:105078006630B0F8627043B1B0F90690B0F902300A
:10508800C3EB090000F1010906E0806D8268204643
:105098001168884700F1040902A850F8042DB2F8F5
:1050A800308008F055FDE968A1B1337AABB1766874
:1050B80096FBF7F107FB11674F4502DC2046FFF727
:1050C8005FFF204602F0AAFB50B1204602F05AF9D1
:1050D800002606E00E46032104E00126022101E035
:1050E80006460121204602F0CEFA012E24D10FFAFD
:1050F80088F007F089FA1FE0E8684268002A1BDD9B
:1051080001681039032917D8DFE801F00606020202
:105118002046FFF766FF0FE02046FFF765FF0BE02C
:10512800204608F007FD02AC44F8040DC06D00F0FD
:10513800DAFB204608F00CFD284603F08BFDBDE89D
:10514800FE8313B5044648B108F0F4FC02ABB0F98D
:10515800604043F8040D184608F0FAFC20461CBDD0
:1051680043680B2BF7B50446056A06D0122B00F0EE
:105178008F80052B40F09B801CE04E48006A07F0AA
:1051880013F960692169A26907F058FBE069216990
:10519800A26907F053FB6369E2692069591C013A67
:1051A80007F00AFB6169E369A06901315A1E07F03B
:1051B80003FB7CE02868002834D02269A7696B6863
:1051C8003C49BE1A701C461023B90F6948694FF054
:1051D800010C04E00F68486801234FF0000C0190AF
:1051E80000976169E769501CFB1A6144921907F03E
:1051F80067FC6B682F4D1BB9AF69ED69012103E0AE
:10520800AF68ED68012300212269B0186669A269B8
:10521800E4690097019501308919013AE31A07F00A
:105228004FFC44E0E7696369224EF91A4A1C57109B
:105238006A6822B9D6F800C07168012003E0D6F880
:1052480010C071690122A669CDF800C001912169D9
:10525800B21A4018591CDB1907F000FC6A68154D92
:105268001AB9AE68ED68012003E0AE69ED69012264
:1052780000206369D4F810E0F918A769E36900967B
:10528800019570440131BA1A013B07F0E7FB0EE0C3
:105298002B6863B90749AD68486A07F085F80220AA
:1052A80007F04AF828462169626907F061FE002084
:1052B800FEBD00BF6800002030B58BB0054608F081
:1052C80039FC0AAB426E43F8280D6846946808F02A
:1052D8003FFC002002900AA8216840F8245D884716
:1052E8000BB030BD2DE9F04393B0044608F022FC22
:1052F80090F86820066E009002F001010691416B5B
:10530800D0F84C9000F039F90746684608F020FCC0
:105318000DF1080806A811904146204602F07DFBD1
:10532800BDF90830BDF90A20BDF90C10BDF90E0011
:105338000D930B250A950E920F911090099409A8C8
:10534800B04798E8030004AD85E803000122294628
:10535800284606F001FB284601F04CFFBDF908007D
:10536800BDF90A200699099405230A930D900E9217
:1053780029B1BDF90C10D2190F91109204E0C3198C
:10538800BDF90E000F9310900023079309A8B047AA
:105398000699BDF9080031B1BDF90A100D90CF1971
:1053A80001370E9705E0C219BDF90A00531C0D9389
:1053B8000E90BDF90C20BDF90E300F92012010930C
:1053C800079009A8B047204608F0B4FB009000F009
:1053D8008EF80190F8B1484606F0B8FF02A9019A84
:1053E800009800F087F8684608F0B2FB0199BDF90B
:1053F8000A00089112220A92BDF90830BDF90C1072
:10540800BDF90E200E9009940D930F91109209A8E2
:10541800B04701A800E0684608F09AFB002001F0B8
:10542800E9FE13B0BDE8F08337B50D46044608F031
:1054380081FB0649024602A8516640F8042D15660C
:1054480008F086FB204602F0DBFF3EBD90000020FE
:105458001FB5069C0094089C019400240294079CA4
:10546800039400F00FF904B010BD13B502AB42630A
:1054780043F8041D416C806C521A64246243411A3B
:1054880092FBF1F0194608F0BCFD019B2522002093
:105498001A7058701CBD37B5456804462146284621
:1054A80008F088FF10B323680B2B10D00F2B1AD1EC
:1054B800284608F03FFB02A941F8040D426E146823
:1054C800084608F045FB8CB12846A0470EE0284660
:1054D80008F030FB02AD45F8040D383008F07CFDCB
:1054E800284608F035FB204603F0B4FB3EBD806B30
:1054F80008F020BB2DE9F041B0F90030B0F9047094
:1055080004460D46F81AB4F90210B4F90680471C8F
:105518001046C1EB080607F0E5F806F10108064653
:1055280007F0F8F8E26AB4F84030116803F00302B3
:10553800012A06D0022A09D1BF1B97FBF2F1298064
:1055480005E0CB43DF19BF1B2F8000E02980A28F25
:105558002988C0EB0808531802219AB298FBF1F386
:10556800E18F2A805B1899B2013A013896190B1815
:105578006980AE80EB80BDE8F08170B590F8683046
:10558800C26A13F0010615BFB0F90230B0F9003055
:10559800B0F90650B0F904501468ED1A436C806CE9
:1055A80001359942B8BF19468142A8BF0146A5EB0B
:1055B80044050EB1411A00E0C91AC21A694391FBA9
:1055C800F2F3E01870BD00002DE9F04387B00E9C9F
:1055D8000F9F0094274C01970294129C4034039427
:1055E80002F0CAFF0746002840D0052008F016FD43
:1055F800804600283AD0384608F09CFADFF88090B8
:1056080011990490002208F0CDFE38461A491B4D26
:1056180008F0F0FD049ED9F80030C6F838807366AB
:105628000FCD06F14C040FC495E80300109A84E8E6
:105638000300642102200024A6F84000B16486F823
:1056480068207464404608F075FA224601460590C1
:105658000498FFF70AFF05A808F07AFA04A808F0EA
:1056680077FAD9F80030384659688847384607B07D
:10567800BDE8F0839F540008E8C30208A00000209A
:105688009C00002010B586B0089C0094099C0194E9
:105698000A9C02940B9C039400240494FFF794FF43
:1056A80006B010BD2DE9F0410D4686B0074600282A
:1056B80000F09F8008F03EFA436C816C466B0090C6
:1056C8009D42B8BF1D468D42A8BF0D46AE42044656
:1056D80000F08C8090F8688018F0010F1CD0B5425B
:1056E80007DA2946FFF749FF3146ADF80E00204694
:1056F80006E03146FFF741FF2946ADF80E00204687
:10570800FFF73BFF002240F6FF73ADF80A00ADF843
:105718000820ADF80C3064E0B54207DA2946FFF7F7
:105728002CFF3146ADF80800204606E03146FFF769
:1057380024FF2946ADF808002046FFF71EFF08F0B1
:105748000203ADF80C0040F6FF720020D9B2ADF8A4
:105758000A00ADF80E20002943D1A06B04910591F1
:1057680008F016FA042810DC06AC54F8180D846BFF
:10577800684608F0EDF92046052106F08CFE04463F
:10578800384608F0D7F9009084630098FFF7AFFE19
:10579800019038B3009EF06C06F0D8FD04A90646C7
:1057A800019A0098FFF7A6FE02A804AA06AC0146D3
:1057B80006F060FF9DE803002A46FFF756FE54F8FE
:1057C800142D009804A9FFF795FE02A8014604AA23
:1057D80006F050FF304606F0B9FD204608F0B8F94B
:1057E80000E06563384602A902F0CEFD684608F07D
:1057F800AFF906B0BDE8F0810388994213B50C46AD
:105808000ED2406850B108F095F902A950F824402A
:1058180041F8040D084608F09BF902E0044600E050
:10582800002420461CBD08B5FFF7E6FF18B1BDE807
:10583800084008F07FB908BD13B5044640B108F028
:1058480079F902AB048843F8040D184608F080F98A
:1058580020461CBD2DE9F743054600283DD04AB136
:105868000846114608F0EEFBD0F10104074638BFA0
:10587800002401E014461746284608F05BF902AEFA
:10588800B0F8008046F8080DD0F80490684608F093
:105898005FF924BB08F101014846890006F0FBFDC9
:1058A800814618B9384608F07FF918E008F042F93F
:1058B80002AB43F8040D40F82870184608F048F980
:1058C800284608F037F902880090511CC0F8049067
:1058D8000180684608F03CF902E0044600E0012433
:1058E8002046BDE8FE8337B5054618B308F022F90F
:1058F80000904068C0B108F01DF900240190009B99
:105908001888844206DA019800EB840008F064FBEA
:105918000134F4E701A808F01BF90099081D08F004
:105928005BFB009B00221A80684608F011F92846A4
:1059380008F03AF93EBD2DE9FF470D4691461E464F
:1059480008B9002445E008F0F5F804AB048843F8EA
:105958000C0D4768184608F0FBF8A542F1D2002F55
:10596800EFD0384608F0E6F804A950F8254041F889
:10597800080D08464FEA850A08F0EAF824B12046DF
:1059880008F006F9B04214D0304608F047FB044648
:105998000028D6D0384608F0CDF804AF804647F83E
:1059A800080D504408F018FB48F82540384608F020
:1059B800CFF8B9F1000F0CD0204608F0BBF804ADC1
:1059C800494645F8040D3246FAF7DAFB284608F04E
:1059D800BFF8204604B0BDE8F08773B50E4605460B
:1059E80058B108F0A7F802AC314644F8040DFFF7A7
:1059F8001AFF0546204608F0ABF828467CBD08206B
:105A080008F00CBB2DE9F041044692B000689B4DAC
:105A180000F0BAFA9A4B002818BF1D4660681C2887
:105A280000F2A581DFE810F09101A301A301A30111
:105A3800A3012E01A301A301A301A301A301270030
:105A4800A301A3017E01A301A301A3014501A301B1
:105A5800A30123001D001F002100A301A301A3012E
:105A68002500E86988E1286A86E1686A84E1A86A0D
:105A780082E1686980E120681C260A96099008F08E
:105A880059F80590076D09A8B847064605A808F013
:105A98005FF8012E11DD286800906A680192A968F4
:105AA800029133462069A169626906F053F82369B7
:105AB800A76906EB0308BF1B2CE0286806F074FCF6
:105AC8002169E8690A18013A606906F0B7FEA26917
